{"contracts/Voting.sol":{"Voting":{"abi":[{"inputs":[],"stateMutability":"nonpayable","type":"constructor"},{"inputs":[{"internalType":"address","name":"owner","type":"address"}],"name":"OwnableInvalidOwner","type":"error"},{"inputs":[{"internalType":"address","name":"account","type":"address"}],"name":"OwnableUnauthorizedAccount","type":"error"},{"anonymous":false,"inputs":[{"indexed":true,"internalType":"address","name":"previousOwner","type":"address"},{"indexed":true,"internalType":"address","name":"newOwner","type":"address"}],"name":"OwnershipTransferred","type":"event"},{"anonymous":false,"inputs":[{"indexed":false,"internalType":"uint256","name":"proposalId","type":"uint256"}],"name":"ProposalRegistered","type":"event"},{"anonymous":false,"inputs":[{"indexed":false,"internalType":"address","name":"voter","type":"address"},{"indexed":false,"internalType":"uint256","name":"proposalId","type":"uint256"}],"name":"Voted","type":"event"},{"anonymous":false,"inputs":[{"indexed":false,"internalType":"address","name":"voterAddress","type":"address"}],"name":"VoterBlacklisted","type":"event"},{"anonymous":false,"inputs":[{"indexed":false,"internalType":"address","name":"voterAddress","type":"address"}],"name":"VoterRegistered","type":"event"},{"anonymous":false,"inputs":[{"indexed":false,"internalType":"address","name":"voterAddress","type":"address"}],"name":"VoterUnRegistered","type":"event"},{"anonymous":false,"inputs":[{"indexed":false,"internalType":"enum Voting.WorkflowStatus","name":"previousStatus","type":"uint8"},{"indexed":false,"internalType":"enum Voting.WorkflowStatus","name":"newStatus","type":"uint8"}],"name":"WorkflowStatusChange","type":"event"},{"inputs":[{"internalType":"string","name":"_description","type":"string"}],"name":"addProposal","outputs":[{"internalType":"enum Voting.WorkflowStatus","name":"","type":"uint8"},{"internalType":"bool","name":"","type":"bool"},{"internalType":"enum Voting.WorkflowStatus","name":"","type":"uint8"}],"stateMutability":"nonpayable","type":"function"},{"inputs":[{"internalType":"uint256","name":"_proposalId","type":"uint256"}],"name":"addVote","outputs":[],"stateMutability":"nonpayable","type":"function"},{"inputs":[{"internalType":"address","name":"_address","type":"address"}],"name":"addVoter","outputs":[],"stateMutability":"nonpayable","type":"function"},{"inputs":[{"internalType":"address","name":"_address","type":"address"}],"name":"blacklistVoter","outputs":[],"stateMutability":"nonpayable","type":"function"},{"inputs":[],"name":"closeProposal","outputs":[],"stateMutability":"nonpayable","type":"function"},{"inputs":[],"name":"closeRegisteringVoters","outputs":[],"stateMutability":"nonpayable","type":"function"},{"inputs":[],"name":"closeVote","outputs":[],"stateMutability":"nonpayable","type":"function"},{"inputs":[],"name":"countVotes","outputs":[],"stateMutability":"nonpayable","type":"function"},{"inputs":[],"name":"getCurrentSession","outputs":[{"components":[{"internalType":"enum Voting.WorkflowStatus","name":"status","type":"uint8"},{"internalType":"bool","name":"isPublicProposal","type":"bool"},{"components":[{"internalType":"uint256","name":"proposalId","type":"uint256"},{"internalType":"string","name":"description","type":"string"},{"internalType":"uint256","name":"voteCount","type":"uint256"},{"internalType":"address","name":"proposerPar","type":"address"}],"internalType":"struct Voting.Proposal[]","name":"lesProposition","type":"tuple[]"},{"components":[{"internalType":"uint256","name":"proposalId","type":"uint256"},{"internalType":"string","name":"description","type":"string"},{"internalType":"uint256","name":"voteCount","type":"uint256"},{"internalType":"address","name":"proposerPar","type":"address"}],"internalType":"struct Voting.Proposal","name":"winner","type":"tuple"}],"internalType":"struct Voting.SessionFormat","name":"","type":"tuple"}],"stateMutability":"view","type":"function"},{"inputs":[{"internalType":"uint256","name":"Index","type":"uint256"}],"name":"getCurrentStatus","outputs":[{"internalType":"enum Voting.WorkflowStatus","name":"","type":"uint8"}],"stateMutability":"view","type":"function"},{"inputs":[],"name":"getIndexSession","outputs":[{"internalType":"uint256","name":"","type":"uint256"}],"stateMutability":"view","type":"function"},{"inputs":[{"internalType":"uint256","name":"index","type":"uint256"}],"name":"getSession","outputs":[{"components":[{"internalType":"enum Voting.WorkflowStatus","name":"status","type":"uint8"},{"internalType":"bool","name":"isPublicProposal","type":"bool"},{"components":[{"internalType":"uint256","name":"proposalId","type":"uint256"},{"internalType":"string","name":"description","type":"string"},{"internalType":"uint256","name":"voteCount","type":"uint256"},{"internalType":"address","name":"proposerPar","type":"address"}],"internalType":"struct Voting.Proposal[]","name":"lesProposition","type":"tuple[]"},{"components":[{"internalType":"uint256","name":"proposalId","type":"uint256"},{"internalType":"string","name":"description","type":"string"},{"internalType":"uint256","name":"voteCount","type":"uint256"},{"internalType":"address","name":"proposerPar","type":"address"}],"internalType":"struct Voting.Proposal","name":"winner","type":"tuple"}],"internalType":"struct Voting.SessionFormat","name":"","type":"tuple"}],"stateMutability":"view","type":"function"},{"inputs":[],"name":"getSessionProposal","outputs":[{"components":[{"internalType":"uint256","name":"proposalId","type":"uint256"},{"internalType":"string","name":"description","type":"string"},{"internalType":"uint256","name":"voteCount","type":"uint256"},{"internalType":"address","name":"proposerPar","type":"address"}],"internalType":"struct Voting.Proposal[]","name":"","type":"tuple[]"}],"stateMutability":"view","type":"function"},{"inputs":[],"name":"getSessionStatus","outputs":[{"internalType":"enum Voting.WorkflowStatus","name":"","type":"uint8"}],"stateMutability":"view","type":"function"},{"inputs":[],"name":"getWinner","outputs":[{"components":[{"internalType":"uint256","name":"proposalId","type":"uint256"},{"internalType":"string","name":"description","type":"string"},{"internalType":"uint256","name":"voteCount","type":"uint256"},{"internalType":"address","name":"proposerPar","type":"address"}],"internalType":"struct Voting.Proposal","name":"","type":"tuple"}],"stateMutability":"view","type":"function"},{"inputs":[{"internalType":"uint256","name":"","type":"uint256"}],"name":"lesSession","outputs":[{"internalType":"enum Voting.WorkflowStatus","name":"status","type":"uint8"},{"internalType":"bool","name":"isPublicProposal","type":"bool"},{"components":[{"internalType":"uint256","name":"proposalId","type":"uint256"},{"internalType":"string","name":"description","type":"string"},{"internalType":"uint256","name":"voteCount","type":"uint256"},{"internalType":"address","name":"proposerPar","type":"address"}],"internalType":"struct Voting.Proposal","name":"winner","type":"tuple"},{"internalType":"bool","name":"isValid","type":"bool"}],"stateMutability":"view","type":"function"},{"inputs":[],"name":"openProposalRegistration","outputs":[],"stateMutability":"nonpayable","type":"function"},{"inputs":[],"name":"openVote","outputs":[],"stateMutability":"nonpayable","type":"function"},{"inputs":[],"name":"owner","outputs":[{"internalType":"address","name":"","type":"address"}],"stateMutability":"view","type":"function"},{"inputs":[{"internalType":"address","name":"_address","type":"address"}],"name":"removeVoter","outputs":[],"stateMutability":"nonpayable","type":"function"},{"inputs":[],"name":"renounceOwnership","outputs":[],"stateMutability":"nonpayable","type":"function"},{"inputs":[],"name":"sessionIndex","outputs":[{"internalType":"uint256","name":"","type":"uint256"}],"stateMutability":"view","type":"function"},{"inputs":[{"internalType":"bool","name":"_publicProposal","type":"bool"}],"name":"startSession","outputs":[],"stateMutability":"payable","type":"function"},{"inputs":[{"internalType":"address","name":"newOwner","type":"address"}],"name":"transferOwnership","outputs":[],"stateMutability":"nonpayable","type":"function"}],"evm":{"bytecode":{"linkReferences":{},"object":"608060405234801561001057600080fd5b50338061003757604051631e4fbdf760e01b81526000600482015260240160405180910390fd5b61004081610046565b50610096565b600080546001600160a01b038381166001600160a01b0319831681178455604051919092169283917f8be0079c531659141344cd1fd0a4f28419497f9722a3daafe3b4186f6b6457e09190a35050565b61293f80620000a66000396000f3fe60806040526004361061012b5760003560e01c80638e7ea5b2116100a65780638e7ea5b2146102a6578063a0aa13c6146102c8578063b2c63487146102f5578063b647990a1461030a578063b74ca78d1461031f578063bcbea4311461034f578063ca64c20514610364578063d107d8c214610386578063e34730841461039b578063f2fde38b146103ae578063f4ab9adf146103ce578063f8a013f8146103ee57600080fd5b80630383badc146101305780631401795f146101525780632c9696091461017d5780632fdae3c5146101a1578063329d3346146101d05780633bdfb5ea146101e5578063402ff0db146101fa57806348f854511461021a578063715018a61461022f57806375dee9981461024457806386c1ff68146102645780638da5cb5b14610284575b600080fd5b34801561013c57600080fd5b5061015061014b36600461224c565b610403565b005b34801561015e57600080fd5b506101676106f1565b604051610174919061231c565b60405180910390f35b34801561018957600080fd5b5061019360025481565b604051908152602001610174565b3480156101ad57600080fd5b506101c16101bc3660046123c2565b6109b0565b60405161017493929190612434565b3480156101dc57600080fd5b50610150610d95565b3480156101f157600080fd5b50610150610e8e565b34801561020657600080fd5b5061016761021536600461224c565b610efc565b34801561022657600080fd5b5061015061124a565b34801561023b57600080fd5b5061015061149e565b34801561025057600080fd5b5061015061025f36600461245f565b6114b2565b34801561027057600080fd5b5061015061027f36600461245f565b611588565b34801561029057600080fd5b5061029961169e565b604051610174919061248f565b3480156102b257600080fd5b506102bb6116ad565b60405161017491906124a3565b3480156102d457600080fd5b506102e86102e336600461224c565b6117a5565b60405161017491906124b6565b34801561030157600080fd5b506101506117f6565b34801561031657600080fd5b5061015061189d565b34801561032b57600080fd5b5061033f61033a36600461224c565b611ba3565b60405161017494939291906124ca565b34801561035b57600080fd5b50600254610193565b34801561037057600080fd5b50610379611cac565b6040516101749190612505565b34801561039257600080fd5b50610150611dee565b6101506103a9366004612567565b611efb565b3480156103ba57600080fd5b506101506103c936600461245f565b611f0f565b3480156103da57600080fd5b506101506103e936600461245f565b611f4a565b3480156103fa57600080fd5b506102e8612061565b60016002548154811061041857610418612589565b600091825260208083203384526007600990930201919091019052604090205460ff16801561047c575060016002548154811061045757610457612589565b600091825260208083203384526008600990930201919091019052604090205460ff16155b8061049657503361048b61169e565b6001600160a01b0316145b6104bb5760405162461bcd60e51b81526004016104b29061259f565b60405180910390fd5b6001600254815481106104d0576104d0612589565b6000918252602080832033845260099290920290910160070190526040902054610100900460ff1615801561053e5750600360016002548154811061051757610517612589565b600091825260209091206009909102015460ff16600581111561053c5761053c612265565b145b61054757600080fd5b600081118015610580575060016002548154811061056757610567612589565b9060005260206000209060090201600101805490508111155b6105c25760405162461bcd60e51b8152602060048201526013602482015272125b9d985b1a59081c1c9bdc1bdcd85b081251606a1b60448201526064016104b2565b600180600254815481106105d8576105d8612589565b90600052602060002090600902016001016001836105f691906125ec565b8154811061060657610606612589565b9060005260206000209060040201600201600082825461062691906125ff565b925050819055506001806002548154811061064357610643612589565b6000918252602080832033845260076009909302019190910190526040902080549115156101000261ff001990921691909117905560025460018054839290811061069057610690612589565b60009182526020808320338085526009939093020160070181526040928390206001019390935581519081529182018390527f4d99b957a2bc29a30ebd96a7be8e68fe50a3c701db28a91436490b7d53870ca491015b60405180910390a150565b6106f96121ed565b604051806080016040528060016002548154811061071957610719612589565b600091825260209091206009909102015460ff16600581111561073e5761073e612265565b815260200160016002548154811061075857610758612589565b906000526020600020906009020160000160019054906101000a900460ff161515815260200160016002548154811061079357610793612589565b9060005260206000209060090201600101805480602002602001604051908101604052809291908181526020016000905b828210156108b557838290600052602060002090600402016040518060800160405290816000820154815260200160018201805461080190612612565b80601f016020809104026020016040519081016040528092919081815260200182805461082d90612612565b801561087a5780601f1061084f5761010080835404028352916020019161087a565b820191906000526020600020905b81548152906001019060200180831161085d57829003601f168201915b505050918352505060028201546020808301919091526003909201546001600160a01b031660409091015290825260019290920191016107c4565b5050505081526020016001600254815481106108d3576108d3612589565b90600052602060002090600902016002016040518060800160405290816000820154815260200160018201805461090990612612565b80601f016020809104026020016040519081016040528092919081815260200182805461093590612612565b80156109825780601f1061095757610100808354040283529160200191610982565b820191906000526020600020905b81548152906001019060200180831161096557829003601f168201915b5050509183525050600282015460208201526003909101546001600160a01b03166040909101529052919050565b60008060006001600254815481106109ca576109ca612589565b600091825260208083203384526007600990930201919091019052604090205460ff168015610a2e5750600160025481548110610a0957610a09612589565b600091825260208083203384526008600990930201919091019052604090205460ff16155b80610a48575033610a3d61169e565b6001600160a01b0316145b610a645760405162461bcd60e51b81526004016104b29061259f565b600160025481548110610a7957610a79612589565b6000918252602090912060099091020154610100900460ff1680610aac575033610aa161169e565b6001600160a01b0316145b610af85760405162461bcd60e51b815260206004820152601e60248201527f43616e6e6f742070726f706f736520696e20746869732073657373696f6e000060448201526064016104b2565b60018060025481548110610b0e57610b0e612589565b600091825260209091206009909102015460ff166005811115610b3357610b33612265565b14610b945760405162461bcd60e51b815260206004820152602b60248201527f54686520737461747573206973202050726f706f73616c73526567697374726160448201526a1d1a5bdb94dd185c9d195960aa1b60648201526084016104b2565b6000600160025481548110610bab57610bab612589565b906000526020600020906009020160010180549050905060006040518060800160405280836001610bdc91906125ff565b815260200188888080601f016020809104026020016040519081016040528093929190818152602001838380828437600092018290525093855250505060208201523360409091015260025460018054929350918110610c3e57610c3e612589565b600091825260208083206001600990930201820180548084018255908452928190208451600490940201928355830151839291820190610c7e90826126c0565b506040820151816002015560608201518160030160006101000a8154816001600160a01b0302191690836001600160a01b0316021790555050507f92e393e9b54e2f801d3ea4beb0c5e71a21cc34a5d34b77d0fb8a3aa1650dc18f60018060025481548110610cef57610cef612589565b906000526020600020906009020160010180549050610d0e91906125ec565b60405190815260200160405180910390a1600160025481548110610d3457610d34612589565b600091825260209091206009909102015460ff1660018060025481548110610d5e57610d5e612589565b600091825260209091206009909102015460ff166005811115610d8357610d83612265565b14600194509450945050509250925092565b610d9d612091565b6003600160025481548110610db457610db4612589565b600091825260209091206009909102015460ff166005811115610dd957610dd9612265565b14610df65760405162461bcd60e51b81526004016104b29061277a565b6000805160206128ea833981519152600160025481548110610e1a57610e1a612589565b6000918252602090912060099091020154604051610e3e9160ff16906004906127ab565b60405180910390a16004600160025481548110610e5d57610e5d612589565b60009182526020909120600990910201805460ff19166001836005811115610e8757610e87612265565b0217905550565b610e96612091565b6000805160206128ea833981519152600160025481548110610eba57610eba612589565b6000918252602090912060099091020154604051610ede9160ff16906001906127ab565b60405180910390a160018060025481548110610e5d57610e5d612589565b610f046121ed565b60015482908110610f275760405162461bcd60e51b81526004016104b2906127c6565b60018181548110610f3a57610f3a612589565b600091825260209091206006600990920201015460ff16610f975760405162461bcd60e51b8152602060048201526017602482015276139bc81cd95cdcda5bdb8b08185b1c9958591e481cd95d604a1b60448201526064016104b2565b604051806080016040528060018581548110610fb557610fb5612589565b600091825260209091206009909102015460ff166005811115610fda57610fda612265565b815260200160018581548110610ff257610ff2612589565b906000526020600020906009020160000160019054906101000a900460ff16151581526020016001858154811061102b5761102b612589565b9060005260206000209060090201600101805480602002602001604051908101604052809291908181526020016000905b8282101561114d57838290600052602060002090600402016040518060800160405290816000820154815260200160018201805461109990612612565b80601f01602080910402602001604051908101604052809291908181526020018280546110c590612612565b80156111125780601f106110e757610100808354040283529160200191611112565b820191906000526020600020905b8154815290600101906020018083116110f557829003601f168201915b505050918352505060028201546020808301919091526003909201546001600160a01b0316604090910152908252600192909201910161105c565b5050505081526020016001858154811061116957611169612589565b90600052602060002090600902016002016040518060800160405290816000820154815260200160018201805461119f90612612565b80601f01602080910402602001604051908101604052809291908181526020018280546111cb90612612565b80156112185780601f106111ed57610100808354040283529160200191611218565b820191906000526020600020905b8154815290600101906020018083116111fb57829003601f168201915b5050509183525050600282015460208201526003909101546001600160a01b0316604090910152905291505b50919050565b611252612091565b6001806002548154811061126857611268612589565b600091825260209091206009909102015460ff16600581111561128d5761128d612265565b146112ea5760405162461bcd60e51b815260206004820152602760248201527f737461747573206e6f742050726f706f73616c73526567697374726174696f6e60448201526614dd185c9d195960ca1b60648201526084016104b2565b600060016002548154811061130157611301612589565b90600052602060002090600902016001018054905090506000604051806080016040528083600161133291906125ff565b81526020016040518060400160405280600a815260200169566f746520426c616e6360b01b815250815260200160008152602001336001600160a01b0316815250905060016002548154811061138a5761138a612589565b6000918252602080832060016009909302018201805480840182559084529281902084516004909402019283558301518392918201906113ca90826126c0565b506040820151816002015560608201518160030160006101000a8154816001600160a01b0302191690836001600160a01b0316021790555050506000805160206128ea83398151915260016002548154811061142857611428612589565b600091825260209091206009909102015460405161144c9160ff16906002906127ab565b60405180910390a1600260016002548154811061146b5761146b612589565b60009182526020909120600990910201805460ff1916600183600581111561149557611495612265565b02179055505050565b6114a6612091565b6114b060006120c3565b565b6114ba612091565b60006001600254815481106114d1576114d1612589565b600091825260208083206001600160a01b0386168452600992909202909101600701905260409020805460ff19169115159190911790556002546001805490918291811061152157611521612589565b600091825260208083206001600160a01b03861684526009929092029091016008019052604090819020805460ff191692151592909217909155517e8471fa6bfdb5180799dd866e4f409add503a3a060686d106f4015aac5483d0906106e690839061248f565b611590612091565b6001600254815481106115a5576115a5612589565b600091825260208083206001600160a01b03851684526007600990930201919091019052604090205460ff166115da57600080fd5b6040518060600160405280600015158152602001600015158152602001600081525060016002548154811061161157611611612589565b600091825260208083206001600160a01b03861684526009929092029091016007018152604091829020835181549285015161ffff1990931690151561ff001916176101009215159290920291909117815591810151600190920191909155517fbcbaafd5b6b0bdadb54e1319af760bd09fc531fcf01b485e0a623e0eb0dfa8f7906106e690839061248f565b6000546001600160a01b031690565b6116b561221b565b6001600254815481106116ca576116ca612589565b90600052602060002090600902016002016040518060800160405290816000820154815260200160018201805461170090612612565b80601f016020809104026020016040519081016040528092919081815260200182805461172c90612612565b80156117795780601f1061174e57610100808354040283529160200191611779565b820191906000526020600020905b81548152906001019060200180831161175c57829003601f168201915b5050509183525050600282015460208201526003909101546001600160a01b0316604090910152919050565b60015460009082106117c95760405162461bcd60e51b81526004016104b2906127c6565b600182815481106117dc576117dc612589565b600091825260209091206009909102015460ff1692915050565b6117fe612091565b6001806002548154811061181457611814612589565b600091825260209091206009909102015460ff16600581111561183957611839612265565b14610e965760405162461bcd60e51b815260206004820152602e60248201527f54686520737461747573206973206e6f742050726f706f73616c73526567697360448201526d1d1c985d1a5bdb94dd185c9d195960921b60648201526084016104b2565b6118a5612091565b60046001600254815481106118bc576118bc612589565b600091825260209091206009909102015460ff1660058111156118e1576118e1612265565b146118fe5760405162461bcd60e51b81526004016104b29061277a565b600060016002548154811061191557611915612589565b906000526020600020906009020160010160008154811061193857611938612589565b9060005260206000209060040201600201549050600060016002548154811061196357611963612589565b906000526020600020906009020160010160008154811061198657611986612589565b906000526020600020906004020190506000600190505b6001600254815481106119b2576119b2612589565b906000526020600020906009020160010180549050811015611ac3576001600254815481106119e3576119e3612589565b90600052602060002090600902016001018181548110611a0557611a05612589565b906000526020600020906004020160020154831015611ab157600160025481548110611a3357611a33612589565b90600052602060002090600902016001018181548110611a5557611a55612589565b9060005260206000209060040201600201549250600160025481548110611a7e57611a7e612589565b90600052602060002090600902016001018181548110611aa057611aa0612589565b906000526020600020906004020191505b80611abb816127fb565b91505061199d565b5080600160025481548110611ada57611ada612589565b90600052602060002090600902016002016000820154816000015560018201816001019081611b099190612814565b50600282810154828201556003928301549290910180546001600160a01b0319166001600160a01b039093169290921790915554600180546000805160206128ea83398151915292908110611b6057611b60612589565b6000918252602090912060099091020154604051611b849160ff16906005906127ab565b60405180910390a1600560016002548154811061146b5761146b612589565b60018181548110611bb357600080fd5b600091825260209182902060099091020180546040805160808101909152600283018054825260038401805460ff80861698506101009095049094169592939192840191611c0090612612565b80601f0160208091040260200160405190810160405280929190818152602001828054611c2c90612612565b8015611c795780601f10611c4e57610100808354040283529160200191611c79565b820191906000526020600020905b815481529060010190602001808311611c5c57829003601f168201915b5050509183525050600282015460208201526003909101546001600160a01b031660409091015260069091015460ff1684565b6060600160025481548110611cc357611cc3612589565b9060005260206000209060090201600101805480602002602001604051908101604052809291908181526020016000905b82821015611de5578382906000526020600020906004020160405180608001604052908160008201548152602001600182018054611d3190612612565b80601f0160208091040260200160405190810160405280929190818152602001828054611d5d90612612565b8015611daa5780601f10611d7f57610100808354040283529160200191611daa565b820191906000526020600020905b815481529060010190602001808311611d8d57829003601f168201915b505050918352505060028201546020808301919091526003909201546001600160a01b03166040909101529082526001929092019101611cf4565b50505050905090565b611df6612091565b6002600160025481548110611e0d57611e0d612589565b600091825260209091206009909102015460ff166005811115611e3257611e32612265565b14611e945760405162461bcd60e51b815260206004820152602c60248201527f54686520737461747573206973206e6f742050726f706f73616c73526567697360448201526b1d1c985d1a5bdb915b99195960a21b60648201526084016104b2565b6000805160206128ea833981519152600160025481548110611eb857611eb8612589565b6000918252602090912060099091020154604051611edc9160ff16906003906127ab565b60405180910390a16003600160025481548110610e5d57610e5d612589565b611f03612091565b611f0c81612113565b50565b611f17612091565b6001600160a01b038116611f41576000604051631e4fbdf760e01b81526004016104b2919061248f565b611f0c816120c3565b611f52612091565b600160025481548110611f6757611f67612589565b600091825260208083206001600160a01b03851684526007600990930201919091019052604090205460ff1615611f9d57600080fd5b60405180606001604052806001151581526020016000151581526020016000815250600160025481548110611fd457611fd4612589565b600091825260208083206001600160a01b03861684526009929092029091016007018152604091829020835181549285015161ffff1990931690151561ff001916176101009215159290920291909117815591810151600190920191909155517fb6be2187d059cc2a55fe29e0e503b566e1e0f8c8780096e185429350acffd3dd906106e690839061248f565b600060016002548154811061207857612078612589565b600091825260209091206009909102015460ff16919050565b3361209a61169e565b6001600160a01b0316146114b0573360405163118cdaa760e01b81526004016104b2919061248f565b600080546001600160a01b038381166001600160a01b0319831681178455604051919092169283917f8be0079c531659141344cd1fd0a4f28419497f9722a3daafe3b4186f6b6457e09190a35050565b6001805460028190558082018083556000838152929190811061213857612138612589565b60009182526020808320600992909202909101805485151561010090810261ffff1992831617835560068301805460ff1916600190811790915560408051606081018252828152808701888152818301898152338a5260078801909852828920915182549151151590950261ff0019951515959095169516949094179290921783559351919093015590519092506000805160206128ea833981519152916121e19181906127ab565b60405180910390a15050565b60408051608081019091528060008152600060208201526060604082018190520161221661221b565b905290565b604051806080016040528060008152602001606081526020016000815260200160006001600160a01b031681525090565b60006020828403121561225e57600080fd5b5035919050565b634e487b7160e01b600052602160045260246000fd5b6006811061229957634e487b7160e01b600052602160045260246000fd5b9052565b805182526000602080830151608082860152805180608087015260005b818110156122d65782810184015187820160a0015283016122ba565b50600060a08288010152604085015160408701526060850151925061230660608701846001600160a01b03169052565b601f01601f19169490940160a001949350505050565b6000602080835260a08301612334828501865161227b565b818501511515604085015260408501516080606086015281815180845260c08701915060c08160051b8801019350848301925060005b818110156123985760bf1988860301835261238685855161229d565b9450928501929185019160010161236a565b505050506060850151848203601f1901608086015291506123b9818361229d565b95945050505050565b600080602083850312156123d557600080fd5b823567ffffffffffffffff808211156123ed57600080fd5b818501915085601f83011261240157600080fd5b81358181111561241057600080fd5b86602082850101111561242257600080fd5b60209290920196919550909350505050565b60608101612442828661227b565b8315156020830152612457604083018461227b565b949350505050565b60006020828403121561247157600080fd5b81356001600160a01b038116811461248857600080fd5b9392505050565b6001600160a01b0391909116815260200190565b602081526000612488602083018461229d565b602081016124c4828461227b565b92915050565b6124d4818661227b565b83151560208201526080604082015260006124f2608083018561229d565b9050821515606083015295945050505050565b6000602080830181845280855180835260408601915060408160051b870101925083870160005b8281101561255a57603f1988860301845261254885835161229d565b9450928501929085019060010161252c565b5092979650505050505050565b60006020828403121561257957600080fd5b8135801515811461248857600080fd5b634e487b7160e01b600052603260045260246000fd5b6020808252601e908201527f4e6f742077686974656c6973746564206f7220626c61636b6c69737465640000604082015260600190565b634e487b7160e01b600052601160045260246000fd5b818103818111156124c4576124c46125d6565b808201808211156124c4576124c46125d6565b600181811c9082168061262657607f821691505b60208210810361124457634e487b7160e01b600052602260045260246000fd5b634e487b7160e01b600052604160045260246000fd5b601f8211156126a657600081815260208120601f850160051c810160208610156126835750805b601f850160051c820191505b818110156126a25782815560010161268f565b5050505b505050565b600019600383901b1c191660019190911b1790565b815167ffffffffffffffff8111156126da576126da612646565b6126ee816126e88454612612565b8461265c565b602080601f83116001811461271d576000841561270b5750858301515b61271585826126ab565b8655506126a2565b600085815260208120601f198616915b8281101561274c5788860151825594840194600190910190840161272d565b508582101561276a5787850151600019600388901b60f8161c191681555b5050505050600190811b01905550565b602080825260179082015276151a19481cdd185d1d5cc81a5cc81b9bdd081d985b1a59604a1b604082015260600190565b604081016127b9828561227b565b612488602083018461227b565b6020808252601b908201527a53657373696f6e20696e646578206f7574206f6620626f756e647360281b604082015260600190565b60006001820161280d5761280d6125d6565b5060010190565b81810361281f575050565b6128298254612612565b67ffffffffffffffff81111561284157612841612646565b61284f816126e88454612612565b6000601f82116001811461287d576000831561286b5750848201545b61287584826126ab565b8555506128e2565b600085815260209020601f19841690600086815260209020845b838110156128b75782860154825560019586019590910190602001612897565b50858310156128d55781850154600019600388901b60f8161c191681555b50505060018360011b0184555b505050505056fe0a97a4ee45751e2abf3e4fc8946939630b11b371ea8ae39ccdc3056e98f5cc3fa26469706673582212206767284934bfffd8b5ef82e48719a8bb5919d1345f312f678485fe92d94b33d664736f6c63430008140033","opcodes":"PUSH1 0x80 PUSH1 0x40 MSTORE CALLVALUE DUP1 ISZERO PUSH2 0x10 JUMPI PUSH1 0x0 DUP1 REVERT JUMPDEST POP CALLER DUP1 PUSH2 0x37 JUMPI PUSH1 0x40 MLOAD PUSH4 0x1E4FBDF7 PUSH1 0xE0 SHL DUP2 MSTORE PUSH1 0x0 PUSH1 0x4 DUP3 ADD MSTORE PUSH1 0x24 ADD PUSH1 0x40 MLOAD DUP1 SWAP2 SUB SWAP1 REVERT JUMPDEST PUSH2 0x40 DUP2 PUSH2 0x46 JUMP JUMPDEST POP PUSH2 0x96 JUMP JUMPDEST PUSH1 0x0 DUP1 SLOAD PUSH1 0x1 PUSH1 0x1 PUSH1 0xA0 SHL SUB DUP4 DUP2 AND PUSH1 0x1 PUSH1 0x1 PUSH1 0xA0 SHL SUB NOT DUP4 AND DUP2 OR DUP5 SSTORE PUSH1 0x40 MLOAD SWAP2 SWAP1 SWAP3 AND SWAP3 DUP4 SWAP2 PUSH32 0x8BE0079C531659141344CD1FD0A4F28419497F9722A3DAAFE3B4186F6B6457E0 SWAP2 SWAP1 LOG3 POP POP JUMP JUMPDEST PUSH2 0x293F DUP1 PUSH3 0xA6 PUSH1 0x0 CODECOPY PUSH1 0x0 RETURN INVALID PUSH1 0x80 PUSH1 0x40 MSTORE PUSH1 0x4 CALLDATASIZE LT PUSH2 0x12B JUMPI PUSH1 0x0 CALLDATALOAD PUSH1 0xE0 SHR DUP1 PUSH4 0x8E7EA5B2 GT PUSH2 0xA6 JUMPI DUP1 PUSH4 0x8E7EA5B2 EQ PUSH2 0x2A6 JUMPI DUP1 PUSH4 0xA0AA13C6 EQ PUSH2 0x2C8 JUMPI DUP1 PUSH4 0xB2C63487 EQ PUSH2 0x2F5 JUMPI DUP1 PUSH4 0xB647990A EQ PUSH2 0x30A JUMPI DUP1 PUSH4 0xB74CA78D EQ PUSH2 0x31F JUMPI DUP1 PUSH4 0xBCBEA431 EQ PUSH2 0x34F JUMPI DUP1 PUSH4 0xCA64C205 EQ PUSH2 0x364 JUMPI DUP1 PUSH4 0xD107D8C2 EQ PUSH2 0x386 JUMPI DUP1 PUSH4 0xE3473084 EQ PUSH2 0x39B JUMPI DUP1 PUSH4 0xF2FDE38B EQ PUSH2 0x3AE JUMPI DUP1 PUSH4 0xF4AB9ADF EQ PUSH2 0x3CE JUMPI DUP1 PUSH4 0xF8A013F8 EQ PUSH2 0x3EE JUMPI PUSH1 0x0 DUP1 REVERT JUMPDEST DUP1 PUSH4 0x383BADC EQ PUSH2 0x130 JUMPI DUP1 PUSH4 0x1401795F EQ PUSH2 0x152 JUMPI DUP1 PUSH4 0x2C969609 EQ PUSH2 0x17D JUMPI DUP1 PUSH4 0x2FDAE3C5 EQ PUSH2 0x1A1 JUMPI DUP1 PUSH4 0x329D3346 EQ PUSH2 0x1D0 JUMPI DUP1 PUSH4 0x3BDFB5EA EQ PUSH2 0x1E5 JUMPI DUP1 PUSH4 0x402FF0DB EQ PUSH2 0x1FA JUMPI DUP1 PUSH4 0x48F85451 EQ PUSH2 0x21A JUMPI DUP1 PUSH4 0x715018A6 EQ PUSH2 0x22F JUMPI DUP1 PUSH4 0x75DEE998 EQ PUSH2 0x244 JUMPI DUP1 PUSH4 0x86C1FF68 EQ PUSH2 0x264 JUMPI DUP1 PUSH4 0x8DA5CB5B EQ PUSH2 0x284 JUMPI JUMPDEST PUSH1 0x0 DUP1 REVERT JUMPDEST CALLVALUE DUP1 ISZERO PUSH2 0x13C JUMPI PUSH1 0x0 DUP1 REVERT JUMPDEST POP PUSH2 0x150 PUSH2 0x14B CALLDATASIZE PUSH1 0x4 PUSH2 0x224C JUMP JUMPDEST PUSH2 0x403 JUMP JUMPDEST STOP JUMPDEST CALLVALUE DUP1 ISZERO PUSH2 0x15E JUMPI PUSH1 0x0 DUP1 REVERT JUMPDEST POP PUSH2 0x167 PUSH2 0x6F1 JUMP JUMPDEST PUSH1 0x40 MLOAD PUSH2 0x174 SWAP2 SWAP1 PUSH2 0x231C JUMP JUMPDEST PUSH1 0x40 MLOAD DUP1 SWAP2 SUB SWAP1 RETURN JUMPDEST CALLVALUE DUP1 ISZERO PUSH2 0x189 JUMPI PUSH1 0x0 DUP1 REVERT JUMPDEST POP PUSH2 0x193 PUSH1 0x2 SLOAD DUP2 JUMP JUMPDEST PUSH1 0x40 MLOAD SWAP1 DUP2 MSTORE PUSH1 0x20 ADD PUSH2 0x174 JUMP JUMPDEST CALLVALUE DUP1 ISZERO PUSH2 0x1AD JUMPI PUSH1 0x0 DUP1 REVERT JUMPDEST POP PUSH2 0x1C1 PUSH2 0x1BC CALLDATASIZE PUSH1 0x4 PUSH2 0x23C2 JUMP JUMPDEST PUSH2 0x9B0 JUMP JUMPDEST PUSH1 0x40 MLOAD PUSH2 0x174 SWAP4 SWAP3 SWAP2 SWAP1 PUSH2 0x2434 JUMP JUMPDEST CALLVALUE DUP1 ISZERO PUSH2 0x1DC JUMPI PUSH1 0x0 DUP1 REVERT JUMPDEST POP PUSH2 0x150 PUSH2 0xD95 JUMP JUMPDEST CALLVALUE DUP1 ISZERO PUSH2 0x1F1 JUMPI PUSH1 0x0 DUP1 REVERT JUMPDEST POP PUSH2 0x150 PUSH2 0xE8E JUMP JUMPDEST CALLVALUE DUP1 ISZERO PUSH2 0x206 JUMPI PUSH1 0x0 DUP1 REVERT JUMPDEST POP PUSH2 0x167 PUSH2 0x215 CALLDATASIZE PUSH1 0x4 PUSH2 0x224C JUMP JUMPDEST PUSH2 0xEFC JUMP JUMPDEST CALLVALUE DUP1 ISZERO PUSH2 0x226 JUMPI PUSH1 0x0 DUP1 REVERT JUMPDEST POP PUSH2 0x150 PUSH2 0x124A JUMP JUMPDEST CALLVALUE DUP1 ISZERO PUSH2 0x23B JUMPI PUSH1 0x0 DUP1 REVERT JUMPDEST POP PUSH2 0x150 PUSH2 0x149E JUMP JUMPDEST CALLVALUE DUP1 ISZERO PUSH2 0x250 JUMPI PUSH1 0x0 DUP1 REVERT JUMPDEST POP PUSH2 0x150 PUSH2 0x25F CALLDATASIZE PUSH1 0x4 PUSH2 0x245F JUMP JUMPDEST PUSH2 0x14B2 JUMP JUMPDEST CALLVALUE DUP1 ISZERO PUSH2 0x270 JUMPI PUSH1 0x0 DUP1 REVERT JUMPDEST POP PUSH2 0x150 PUSH2 0x27F CALLDATASIZE PUSH1 0x4 PUSH2 0x245F JUMP JUMPDEST PUSH2 0x1588 JUMP JUMPDEST CALLVALUE DUP1 ISZERO PUSH2 0x290 JUMPI PUSH1 0x0 DUP1 REVERT JUMPDEST POP PUSH2 0x299 PUSH2 0x169E JUMP JUMPDEST PUSH1 0x40 MLOAD PUSH2 0x174 SWAP2 SWAP1 PUSH2 0x248F JUMP JUMPDEST CALLVALUE DUP1 ISZERO PUSH2 0x2B2 JUMPI PUSH1 0x0 DUP1 REVERT JUMPDEST POP PUSH2 0x2BB PUSH2 0x16AD JUMP JUMPDEST PUSH1 0x40 MLOAD PUSH2 0x174 SWAP2 SWAP1 PUSH2 0x24A3 JUMP JUMPDEST CALLVALUE DUP1 ISZERO PUSH2 0x2D4 JUMPI PUSH1 0x0 DUP1 REVERT JUMPDEST POP PUSH2 0x2E8 PUSH2 0x2E3 CALLDATASIZE PUSH1 0x4 PUSH2 0x224C JUMP JUMPDEST PUSH2 0x17A5 JUMP JUMPDEST PUSH1 0x40 MLOAD PUSH2 0x174 SWAP2 SWAP1 PUSH2 0x24B6 JUMP JUMPDEST CALLVALUE DUP1 ISZERO PUSH2 0x301 JUMPI PUSH1 0x0 DUP1 REVERT JUMPDEST POP PUSH2 0x150 PUSH2 0x17F6 JUMP JUMPDEST CALLVALUE DUP1 ISZERO PUSH2 0x316 JUMPI PUSH1 0x0 DUP1 REVERT JUMPDEST POP PUSH2 0x150 PUSH2 0x189D JUMP JUMPDEST CALLVALUE DUP1 ISZERO PUSH2 0x32B JUMPI PUSH1 0x0 DUP1 REVERT JUMPDEST POP PUSH2 0x33F PUSH2 0x33A CALLDATASIZE PUSH1 0x4 PUSH2 0x224C JUMP JUMPDEST PUSH2 0x1BA3 JUMP JUMPDEST PUSH1 0x40 MLOAD PUSH2 0x174 SWAP5 SWAP4 SWAP3 SWAP2 SWAP1 PUSH2 0x24CA JUMP JUMPDEST CALLVALUE DUP1 ISZERO PUSH2 0x35B JUMPI PUSH1 0x0 DUP1 REVERT JUMPDEST POP PUSH1 0x2 SLOAD PUSH2 0x193 JUMP JUMPDEST CALLVALUE DUP1 ISZERO PUSH2 0x370 JUMPI PUSH1 0x0 DUP1 REVERT JUMPDEST POP PUSH2 0x379 PUSH2 0x1CAC JUMP JUMPDEST PUSH1 0x40 MLOAD PUSH2 0x174 SWAP2 SWAP1 PUSH2 0x2505 JUMP JUMPDEST CALLVALUE DUP1 ISZERO PUSH2 0x392 JUMPI PUSH1 0x0 DUP1 REVERT JUMPDEST POP PUSH2 0x150 PUSH2 0x1DEE JUMP JUMPDEST PUSH2 0x150 PUSH2 0x3A9 CALLDATASIZE PUSH1 0x4 PUSH2 0x2567 JUMP JUMPDEST PUSH2 0x1EFB JUMP JUMPDEST CALLVALUE DUP1 ISZERO PUSH2 0x3BA JUMPI PUSH1 0x0 DUP1 REVERT JUMPDEST POP PUSH2 0x150 PUSH2 0x3C9 CALLDATASIZE PUSH1 0x4 PUSH2 0x245F JUMP JUMPDEST PUSH2 0x1F0F JUMP JUMPDEST CALLVALUE DUP1 ISZERO PUSH2 0x3DA JUMPI PUSH1 0x0 DUP1 REVERT JUMPDEST POP PUSH2 0x150 PUSH2 0x3E9 CALLDATASIZE PUSH1 0x4 PUSH2 0x245F JUMP JUMPDEST PUSH2 0x1F4A JUMP JUMPDEST CALLVALUE DUP1 ISZERO PUSH2 0x3FA JUMPI PUSH1 0x0 DUP1 REVERT JUMPDEST POP PUSH2 0x2E8 PUSH2 0x2061 JUMP JUMPDEST PUSH1 0x1 PUSH1 0x2 SLOAD DUP2 SLOAD DUP2 LT PUSH2 0x418 JUMPI PUSH2 0x418 PUSH2 0x2589 JUMP JUMPDEST PUSH1 0x0 SWAP2 DUP3 MSTORE PUSH1 0x20 DUP1 DUP4 KECCAK256 CALLER DUP5 MSTORE PUSH1 0x7 PUSH1 0x9 SWAP1 SWAP4 MUL ADD SWAP2 SWAP1 SWAP2 ADD SWAP1 MSTORE PUSH1 0x40 SWAP1 KECCAK256 SLOAD PUSH1 0xFF AND DUP1 ISZERO PUSH2 0x47C JUMPI POP PUSH1 0x1 PUSH1 0x2 SLOAD DUP2 SLOAD DUP2 LT PUSH2 0x457 JUMPI PUSH2 0x457 PUSH2 0x2589 JUMP JUMPDEST PUSH1 0x0 SWAP2 DUP3 MSTORE PUSH1 0x20 DUP1 DUP4 KECCAK256 CALLER DUP5 MSTORE PUSH1 0x8 PUSH1 0x9 SWAP1 SWAP4 MUL ADD SWAP2 SWAP1 SWAP2 ADD SWAP1 MSTORE PUSH1 0x40 SWAP1 KECCAK256 SLOAD PUSH1 0xFF AND ISZERO JUMPDEST DUP1 PUSH2 0x496 JUMPI POP CALLER PUSH2 0x48B PUSH2 0x169E JUMP JUMPDEST PUSH1 0x1 PUSH1 0x1 PUSH1 0xA0 SHL SUB AND EQ JUMPDEST PUSH2 0x4BB JUMPI PUSH1 0x40 MLOAD PUSH3 0x461BCD PUSH1 0xE5 SHL DUP2 MSTORE PUSH1 0x4 ADD PUSH2 0x4B2 SWAP1 PUSH2 0x259F JUMP JUMPDEST PUSH1 0x40 MLOAD DUP1 SWAP2 SUB SWAP1 REVERT JUMPDEST PUSH1 0x1 PUSH1 0x2 SLOAD DUP2 SLOAD DUP2 LT PUSH2 0x4D0 JUMPI PUSH2 0x4D0 PUSH2 0x2589 JUMP JUMPDEST PUSH1 0x0 SWAP2 DUP3 MSTORE PUSH1 0x20 DUP1 DUP4 KECCAK256 CALLER DUP5 MSTORE PUSH1 0x9 SWAP3 SWAP1 SWAP3 MUL SWAP1 SWAP2 ADD PUSH1 0x7 ADD SWAP1 MSTORE PUSH1 0x40 SWAP1 KECCAK256 SLOAD PUSH2 0x100 SWAP1 DIV PUSH1 0xFF AND ISZERO DUP1 ISZERO PUSH2 0x53E JUMPI POP PUSH1 0x3 PUSH1 0x1 PUSH1 0x2 SLOAD DUP2 SLOAD DUP2 LT PUSH2 0x517 JUMPI PUSH2 0x517 PUSH2 0x2589 JUMP JUMPDEST PUSH1 0x0 SWAP2 DUP3 MSTORE PUSH1 0x20 SWAP1 SWAP2 KECCAK256 PUSH1 0x9 SWAP1 SWAP2 MUL ADD SLOAD PUSH1 0xFF AND PUSH1 0x5 DUP2 GT ISZERO PUSH2 0x53C JUMPI PUSH2 0x53C PUSH2 0x2265 JUMP JUMPDEST EQ JUMPDEST PUSH2 0x547 JUMPI PUSH1 0x0 DUP1 REVERT JUMPDEST PUSH1 0x0 DUP2 GT DUP1 ISZERO PUSH2 0x580 JUMPI POP PUSH1 0x1 PUSH1 0x2 SLOAD DUP2 SLOAD DUP2 LT PUSH2 0x567 JUMPI PUSH2 0x567 PUSH2 0x2589 JUMP JUMPDEST SWAP1 PUSH1 0x0 MSTORE PUSH1 0x20 PUSH1 0x0 KECCAK256 SWAP1 PUSH1 0x9 MUL ADD PUSH1 0x1 ADD DUP1 SLOAD SWAP1 POP DUP2 GT ISZERO JUMPDEST PUSH2 0x5C2 JUMPI PUSH1 0x40 MLOAD PUSH3 0x461BCD PUSH1 0xE5 SHL DUP2 MSTORE PUSH1 0x20 PUSH1 0x4 DUP3 ADD MSTORE PUSH1 0x13 PUSH1 0x24 DUP3 ADD MSTORE PUSH19 0x125B9D985B1A59081C1C9BDC1BDCD85B081251 PUSH1 0x6A SHL PUSH1 0x44 DUP3 ADD MSTORE PUSH1 0x64 ADD PUSH2 0x4B2 JUMP JUMPDEST PUSH1 0x1 DUP1 PUSH1 0x2 SLOAD DUP2 SLOAD DUP2 LT PUSH2 0x5D8 JUMPI PUSH2 0x5D8 PUSH2 0x2589 JUMP JUMPDEST SWAP1 PUSH1 0x0 MSTORE PUSH1 0x20 PUSH1 0x0 KECCAK256 SWAP1 PUSH1 0x9 MUL ADD PUSH1 0x1 ADD PUSH1 0x1 DUP4 PUSH2 0x5F6 SWAP2 SWAP1 PUSH2 0x25EC JUMP JUMPDEST DUP2 SLOAD DUP2 LT PUSH2 0x606 JUMPI PUSH2 0x606 PUSH2 0x2589 JUMP JUMPDEST SWAP1 PUSH1 0x0 MSTORE PUSH1 0x20 PUSH1 0x0 KECCAK256 SWAP1 PUSH1 0x4 MUL ADD PUSH1 0x2 ADD PUSH1 0x0 DUP3 DUP3 SLOAD PUSH2 0x626 SWAP2 SWAP1 PUSH2 0x25FF JUMP JUMPDEST SWAP3 POP POP DUP2 SWAP1 SSTORE POP PUSH1 0x1 DUP1 PUSH1 0x2 SLOAD DUP2 SLOAD DUP2 LT PUSH2 0x643 JUMPI PUSH2 0x643 PUSH2 0x2589 JUMP JUMPDEST PUSH1 0x0 SWAP2 DUP3 MSTORE PUSH1 0x20 DUP1 DUP4 KECCAK256 CALLER DUP5 MSTORE PUSH1 0x7 PUSH1 0x9 SWAP1 SWAP4 MUL ADD SWAP2 SWAP1 SWAP2 ADD SWAP1 MSTORE PUSH1 0x40 SWAP1 KECCAK256 DUP1 SLOAD SWAP2 ISZERO ISZERO PUSH2 0x100 MUL PUSH2 0xFF00 NOT SWAP1 SWAP3 AND SWAP2 SWAP1 SWAP2 OR SWAP1 SSTORE PUSH1 0x2 SLOAD PUSH1 0x1 DUP1 SLOAD DUP4 SWAP3 SWAP1 DUP2 LT PUSH2 0x690 JUMPI PUSH2 0x690 PUSH2 0x2589 JUMP JUMPDEST PUSH1 0x0 SWAP2 DUP3 MSTORE PUSH1 0x20 DUP1 DUP4 KECCAK256 CALLER DUP1 DUP6 MSTORE PUSH1 0x9 SWAP4 SWAP1 SWAP4 MUL ADD PUSH1 0x7 ADD DUP2 MSTORE PUSH1 0x40 SWAP3 DUP4 SWAP1 KECCAK256 PUSH1 0x1 ADD SWAP4 SWAP1 SWAP4 SSTORE DUP2 MLOAD SWAP1 DUP2 MSTORE SWAP2 DUP3 ADD DUP4 SWAP1 MSTORE PUSH32 0x4D99B957A2BC29A30EBD96A7BE8E68FE50A3C701DB28A91436490B7D53870CA4 SWAP2 ADD JUMPDEST PUSH1 0x40 MLOAD DUP1 SWAP2 SUB SWAP1 LOG1 POP JUMP JUMPDEST PUSH2 0x6F9 PUSH2 0x21ED JUMP JUMPDEST PUSH1 0x40 MLOAD DUP1 PUSH1 0x80 ADD PUSH1 0x40 MSTORE DUP1 PUSH1 0x1 PUSH1 0x2 SLOAD DUP2 SLOAD DUP2 LT PUSH2 0x719 JUMPI PUSH2 0x719 PUSH2 0x2589 JUMP JUMPDEST PUSH1 0x0 SWAP2 DUP3 MSTORE PUSH1 0x20 SWAP1 SWAP2 KECCAK256 PUSH1 0x9 SWAP1 SWAP2 MUL ADD SLOAD PUSH1 0xFF AND PUSH1 0x5 DUP2 GT ISZERO PUSH2 0x73E JUMPI PUSH2 0x73E PUSH2 0x2265 JUMP JUMPDEST DUP2 MSTORE PUSH1 0x20 ADD PUSH1 0x1 PUSH1 0x2 SLOAD DUP2 SLOAD DUP2 LT PUSH2 0x758 JUMPI PUSH2 0x758 PUSH2 0x2589 JUMP JUMPDEST SWAP1 PUSH1 0x0 MSTORE PUSH1 0x20 PUSH1 0x0 KECCAK256 SWAP1 PUSH1 0x9 MUL ADD PUSH1 0x0 ADD PUSH1 0x1 SWAP1 SLOAD SWAP1 PUSH2 0x100 EXP SWAP1 DIV PUSH1 0xFF AND ISZERO ISZERO DUP2 MSTORE PUSH1 0x20 ADD PUSH1 0x1 PUSH1 0x2 SLOAD DUP2 SLOAD DUP2 LT PUSH2 0x793 JUMPI PUSH2 0x793 PUSH2 0x2589 JUMP JUMPDEST SWAP1 PUSH1 0x0 MSTORE PUSH1 0x20 PUSH1 0x0 KECCAK256 SWAP1 PUSH1 0x9 MUL ADD PUSH1 0x1 ADD DUP1 SLOAD DUP1 PUSH1 0x20 MUL PUSH1 0x20 ADD PUSH1 0x40 MLOAD SWAP1 DUP2 ADD PUSH1 0x40 MSTORE DUP1 SWAP3 SWAP2 SWAP1 DUP2 DUP2 MSTORE PUSH1 0x20 ADD PUSH1 0x0 SWAP1 JUMPDEST DUP3 DUP3 LT ISZERO PUSH2 0x8B5 JUMPI DUP4 DUP3 SWAP1 PUSH1 0x0 MSTORE PUSH1 0x20 PUSH1 0x0 KECCAK256 SWAP1 PUSH1 0x4 MUL ADD PUSH1 0x40 MLOAD DUP1 PUSH1 0x80 ADD PUSH1 0x40 MSTORE SWAP1 DUP2 PUSH1 0x0 DUP3 ADD SLOAD DUP2 MSTORE PUSH1 0x20 ADD PUSH1 0x1 DUP3 ADD DUP1 SLOAD PUSH2 0x801 SWAP1 PUSH2 0x2612 JUMP JUMPDEST DUP1 PUSH1 0x1F ADD PUSH1 0x20 DUP1 SWAP2 DIV MUL PUSH1 0x20 ADD PUSH1 0x40 MLOAD SWAP1 DUP2 ADD PUSH1 0x40 MSTORE DUP1 SWAP3 SWAP2 SWAP1 DUP2 DUP2 MSTORE PUSH1 0x20 ADD DUP3 DUP1 SLOAD PUSH2 0x82D SWAP1 PUSH2 0x2612 JUMP JUMPDEST DUP1 ISZERO PUSH2 0x87A JUMPI DUP1 PUSH1 0x1F LT PUSH2 0x84F JUMPI PUSH2 0x100 DUP1 DUP4 SLOAD DIV MUL DUP4 MSTORE SWAP2 PUSH1 0x20 ADD SWAP2 PUSH2 0x87A JUMP JUMPDEST DUP3 ADD SWAP2 SWAP1 PUSH1 0x0 MSTORE PUSH1 0x20 PUSH1 0x0 KECCAK256 SWAP1 JUMPDEST DUP2 SLOAD DUP2 MSTORE SWAP1 PUSH1 0x1 ADD SWAP1 PUSH1 0x20 ADD DUP1 DUP4 GT PUSH2 0x85D JUMPI DUP3 SWAP1 SUB PUSH1 0x1F AND DUP3 ADD SWAP2 JUMPDEST POP POP POP SWAP2 DUP4 MSTORE POP POP PUSH1 0x2 DUP3 ADD SLOAD PUSH1 0x20 DUP1 DUP4 ADD SWAP2 SWAP1 SWAP2 MSTORE PUSH1 0x3 SWAP1 SWAP3 ADD SLOAD PUSH1 0x1 PUSH1 0x1 PUSH1 0xA0 SHL SUB AND PUSH1 0x40 SWAP1 SWAP2 ADD MSTORE SWAP1 DUP3 MSTORE PUSH1 0x1 SWAP3 SWAP1 SWAP3 ADD SWAP2 ADD PUSH2 0x7C4 JUMP JUMPDEST POP POP POP POP DUP2 MSTORE PUSH1 0x20 ADD PUSH1 0x1 PUSH1 0x2 SLOAD DUP2 SLOAD DUP2 LT PUSH2 0x8D3 JUMPI PUSH2 0x8D3 PUSH2 0x2589 JUMP JUMPDEST SWAP1 PUSH1 0x0 MSTORE PUSH1 0x20 PUSH1 0x0 KECCAK256 SWAP1 PUSH1 0x9 MUL ADD PUSH1 0x2 ADD PUSH1 0x40 MLOAD DUP1 PUSH1 0x80 ADD PUSH1 0x40 MSTORE SWAP1 DUP2 PUSH1 0x0 DUP3 ADD SLOAD DUP2 MSTORE PUSH1 0x20 ADD PUSH1 0x1 DUP3 ADD DUP1 SLOAD PUSH2 0x909 SWAP1 PUSH2 0x2612 JUMP JUMPDEST DUP1 PUSH1 0x1F ADD PUSH1 0x20 DUP1 SWAP2 DIV MUL PUSH1 0x20 ADD PUSH1 0x40 MLOAD SWAP1 DUP2 ADD PUSH1 0x40 MSTORE DUP1 SWAP3 SWAP2 SWAP1 DUP2 DUP2 MSTORE PUSH1 0x20 ADD DUP3 DUP1 SLOAD PUSH2 0x935 SWAP1 PUSH2 0x2612 JUMP JUMPDEST DUP1 ISZERO PUSH2 0x982 JUMPI DUP1 PUSH1 0x1F LT PUSH2 0x957 JUMPI PUSH2 0x100 DUP1 DUP4 SLOAD DIV MUL DUP4 MSTORE SWAP2 PUSH1 0x20 ADD SWAP2 PUSH2 0x982 JUMP JUMPDEST DUP3 ADD SWAP2 SWAP1 PUSH1 0x0 MSTORE PUSH1 0x20 PUSH1 0x0 KECCAK256 SWAP1 JUMPDEST DUP2 SLOAD DUP2 MSTORE SWAP1 PUSH1 0x1 ADD SWAP1 PUSH1 0x20 ADD DUP1 DUP4 GT PUSH2 0x965 JUMPI DUP3 SWAP1 SUB PUSH1 0x1F AND DUP3 ADD SWAP2 JUMPDEST POP POP POP SWAP2 DUP4 MSTORE POP POP PUSH1 0x2 DUP3 ADD SLOAD PUSH1 0x20 DUP3 ADD MSTORE PUSH1 0x3 SWAP1 SWAP2 ADD SLOAD PUSH1 0x1 PUSH1 0x1 PUSH1 0xA0 SHL SUB AND PUSH1 0x40 SWAP1 SWAP2 ADD MSTORE SWAP1 MSTORE SWAP2 SWAP1 POP JUMP JUMPDEST PUSH1 0x0 DUP1 PUSH1 0x0 PUSH1 0x1 PUSH1 0x2 SLOAD DUP2 SLOAD DUP2 LT PUSH2 0x9CA JUMPI PUSH2 0x9CA PUSH2 0x2589 JUMP JUMPDEST PUSH1 0x0 SWAP2 DUP3 MSTORE PUSH1 0x20 DUP1 DUP4 KECCAK256 CALLER DUP5 MSTORE PUSH1 0x7 PUSH1 0x9 SWAP1 SWAP4 MUL ADD SWAP2 SWAP1 SWAP2 ADD SWAP1 MSTORE PUSH1 0x40 SWAP1 KECCAK256 SLOAD PUSH1 0xFF AND DUP1 ISZERO PUSH2 0xA2E JUMPI POP PUSH1 0x1 PUSH1 0x2 SLOAD DUP2 SLOAD DUP2 LT PUSH2 0xA09 JUMPI PUSH2 0xA09 PUSH2 0x2589 JUMP JUMPDEST PUSH1 0x0 SWAP2 DUP3 MSTORE PUSH1 0x20 DUP1 DUP4 KECCAK256 CALLER DUP5 MSTORE PUSH1 0x8 PUSH1 0x9 SWAP1 SWAP4 MUL ADD SWAP2 SWAP1 SWAP2 ADD SWAP1 MSTORE PUSH1 0x40 SWAP1 KECCAK256 SLOAD PUSH1 0xFF AND ISZERO JUMPDEST DUP1 PUSH2 0xA48 JUMPI POP CALLER PUSH2 0xA3D PUSH2 0x169E JUMP JUMPDEST PUSH1 0x1 PUSH1 0x1 PUSH1 0xA0 SHL SUB AND EQ JUMPDEST PUSH2 0xA64 JUMPI PUSH1 0x40 MLOAD PUSH3 0x461BCD PUSH1 0xE5 SHL DUP2 MSTORE PUSH1 0x4 ADD PUSH2 0x4B2 SWAP1 PUSH2 0x259F JUMP JUMPDEST PUSH1 0x1 PUSH1 0x2 SLOAD DUP2 SLOAD DUP2 LT PUSH2 0xA79 JUMPI PUSH2 0xA79 PUSH2 0x2589 JUMP JUMPDEST PUSH1 0x0 SWAP2 DUP3 MSTORE PUSH1 0x20 SWAP1 SWAP2 KECCAK256 PUSH1 0x9 SWAP1 SWAP2 MUL ADD SLOAD PUSH2 0x100 SWAP1 DIV PUSH1 0xFF AND DUP1 PUSH2 0xAAC JUMPI POP CALLER PUSH2 0xAA1 PUSH2 0x169E JUMP JUMPDEST PUSH1 0x1 PUSH1 0x1 PUSH1 0xA0 SHL SUB AND EQ JUMPDEST PUSH2 0xAF8 JUMPI PUSH1 0x40 MLOAD PUSH3 0x461BCD PUSH1 0xE5 SHL DUP2 MSTORE PUSH1 0x20 PUSH1 0x4 DUP3 ADD MSTORE PUSH1 0x1E PUSH1 0x24 DUP3 ADD MSTORE PUSH32 0x43616E6E6F742070726F706F736520696E20746869732073657373696F6E0000 PUSH1 0x44 DUP3 ADD MSTORE PUSH1 0x64 ADD PUSH2 0x4B2 JUMP JUMPDEST PUSH1 0x1 DUP1 PUSH1 0x2 SLOAD DUP2 SLOAD DUP2 LT PUSH2 0xB0E JUMPI PUSH2 0xB0E PUSH2 0x2589 JUMP JUMPDEST PUSH1 0x0 SWAP2 DUP3 MSTORE PUSH1 0x20 SWAP1 SWAP2 KECCAK256 PUSH1 0x9 SWAP1 SWAP2 MUL ADD SLOAD PUSH1 0xFF AND PUSH1 0x5 DUP2 GT ISZERO PUSH2 0xB33 JUMPI PUSH2 0xB33 PUSH2 0x2265 JUMP JUMPDEST EQ PUSH2 0xB94 JUMPI PUSH1 0x40 MLOAD PUSH3 0x461BCD PUSH1 0xE5 SHL DUP2 MSTORE PUSH1 0x20 PUSH1 0x4 DUP3 ADD MSTORE PUSH1 0x2B PUSH1 0x24 DUP3 ADD MSTORE PUSH32 0x54686520737461747573206973202050726F706F73616C735265676973747261 PUSH1 0x44 DUP3 ADD MSTORE PUSH11 0x1D1A5BDB94DD185C9D1959 PUSH1 0xAA SHL PUSH1 0x64 DUP3 ADD MSTORE PUSH1 0x84 ADD PUSH2 0x4B2 JUMP JUMPDEST PUSH1 0x0 PUSH1 0x1 PUSH1 0x2 SLOAD DUP2 SLOAD DUP2 LT PUSH2 0xBAB JUMPI PUSH2 0xBAB PUSH2 0x2589 JUMP JUMPDEST SWAP1 PUSH1 0x0 MSTORE PUSH1 0x20 PUSH1 0x0 KECCAK256 SWAP1 PUSH1 0x9 MUL ADD PUSH1 0x1 ADD DUP1 SLOAD SWAP1 POP SWAP1 POP PUSH1 0x0 PUSH1 0x40 MLOAD DUP1 PUSH1 0x80 ADD PUSH1 0x40 MSTORE DUP1 DUP4 PUSH1 0x1 PUSH2 0xBDC SWAP2 SWAP1 PUSH2 0x25FF JUMP JUMPDEST DUP2 MSTORE PUSH1 0x20 ADD DUP9 DUP9 DUP1 DUP1 PUSH1 0x1F ADD PUSH1 0x20 DUP1 SWAP2 DIV MUL PUSH1 0x20 ADD PUSH1 0x40 MLOAD SWAP1 DUP2 ADD PUSH1 0x40 MSTORE DUP1 SWAP4 SWAP3 SWAP2 SWAP1 DUP2 DUP2 MSTORE PUSH1 0x20 ADD DUP4 DUP4 DUP1 DUP3 DUP5 CALLDATACOPY PUSH1 0x0 SWAP3 ADD DUP3 SWAP1 MSTORE POP SWAP4 DUP6 MSTORE POP POP POP PUSH1 0x20 DUP3 ADD MSTORE CALLER PUSH1 0x40 SWAP1 SWAP2 ADD MSTORE PUSH1 0x2 SLOAD PUSH1 0x1 DUP1 SLOAD SWAP3 SWAP4 POP SWAP2 DUP2 LT PUSH2 0xC3E JUMPI PUSH2 0xC3E PUSH2 0x2589 JUMP JUMPDEST PUSH1 0x0 SWAP2 DUP3 MSTORE PUSH1 0x20 DUP1 DUP4 KECCAK256 PUSH1 0x1 PUSH1 0x9 SWAP1 SWAP4 MUL ADD DUP3 ADD DUP1 SLOAD DUP1 DUP5 ADD DUP3 SSTORE SWAP1 DUP5 MSTORE SWAP3 DUP2 SWAP1 KECCAK256 DUP5 MLOAD PUSH1 0x4 SWAP1 SWAP5 MUL ADD SWAP3 DUP4 SSTORE DUP4 ADD MLOAD DUP4 SWAP3 SWAP2 DUP3 ADD SWAP1 PUSH2 0xC7E SWAP1 DUP3 PUSH2 0x26C0 JUMP JUMPDEST POP PUSH1 0x40 DUP3 ADD MLOAD DUP2 PUSH1 0x2 ADD SSTORE PUSH1 0x60 DUP3 ADD MLOAD DUP2 PUSH1 0x3 ADD PUSH1 0x0 PUSH2 0x100 EXP DUP2 SLOAD DUP2 PUSH1 0x1 PUSH1 0x1 PUSH1 0xA0 SHL SUB MUL NOT AND SWAP1 DUP4 PUSH1 0x1 PUSH1 0x1 PUSH1 0xA0 SHL SUB AND MUL OR SWAP1 SSTORE POP POP POP PUSH32 0x92E393E9B54E2F801D3EA4BEB0C5E71A21CC34A5D34B77D0FB8A3AA1650DC18F PUSH1 0x1 DUP1 PUSH1 0x2 SLOAD DUP2 SLOAD DUP2 LT PUSH2 0xCEF JUMPI PUSH2 0xCEF PUSH2 0x2589 JUMP JUMPDEST SWAP1 PUSH1 0x0 MSTORE PUSH1 0x20 PUSH1 0x0 KECCAK256 SWAP1 PUSH1 0x9 MUL ADD PUSH1 0x1 ADD DUP1 SLOAD SWAP1 POP PUSH2 0xD0E SWAP2 SWAP1 PUSH2 0x25EC JUMP JUMPDEST PUSH1 0x40 MLOAD SWAP1 DUP2 MSTORE PUSH1 0x20 ADD PUSH1 0x40 MLOAD DUP1 SWAP2 SUB SWAP1 LOG1 PUSH1 0x1 PUSH1 0x2 SLOAD DUP2 SLOAD DUP2 LT PUSH2 0xD34 JUMPI PUSH2 0xD34 PUSH2 0x2589 JUMP JUMPDEST PUSH1 0x0 SWAP2 DUP3 MSTORE PUSH1 0x20 SWAP1 SWAP2 KECCAK256 PUSH1 0x9 SWAP1 SWAP2 MUL ADD SLOAD PUSH1 0xFF AND PUSH1 0x1 DUP1 PUSH1 0x2 SLOAD DUP2 SLOAD DUP2 LT PUSH2 0xD5E JUMPI PUSH2 0xD5E PUSH2 0x2589 JUMP JUMPDEST PUSH1 0x0 SWAP2 DUP3 MSTORE PUSH1 0x20 SWAP1 SWAP2 KECCAK256 PUSH1 0x9 SWAP1 SWAP2 MUL ADD SLOAD PUSH1 0xFF AND PUSH1 0x5 DUP2 GT ISZERO PUSH2 0xD83 JUMPI PUSH2 0xD83 PUSH2 0x2265 JUMP JUMPDEST EQ PUSH1 0x1 SWAP5 POP SWAP5 POP SWAP5 POP POP POP SWAP3 POP SWAP3 POP SWAP3 JUMP JUMPDEST PUSH2 0xD9D PUSH2 0x2091 JUMP JUMPDEST PUSH1 0x3 PUSH1 0x1 PUSH1 0x2 SLOAD DUP2 SLOAD DUP2 LT PUSH2 0xDB4 JUMPI PUSH2 0xDB4 PUSH2 0x2589 JUMP JUMPDEST PUSH1 0x0 SWAP2 DUP3 MSTORE PUSH1 0x20 SWAP1 SWAP2 KECCAK256 PUSH1 0x9 SWAP1 SWAP2 MUL ADD SLOAD PUSH1 0xFF AND PUSH1 0x5 DUP2 GT ISZERO PUSH2 0xDD9 JUMPI PUSH2 0xDD9 PUSH2 0x2265 JUMP JUMPDEST EQ PUSH2 0xDF6 JUMPI PUSH1 0x40 MLOAD PUSH3 0x461BCD PUSH1 0xE5 SHL DUP2 MSTORE PUSH1 0x4 ADD PUSH2 0x4B2 SWAP1 PUSH2 0x277A JUMP JUMPDEST PUSH1 0x0 DUP1 MLOAD PUSH1 0x20 PUSH2 0x28EA DUP4 CODECOPY DUP2 MLOAD SWAP2 MSTORE PUSH1 0x1 PUSH1 0x2 SLOAD DUP2 SLOAD DUP2 LT PUSH2 0xE1A JUMPI PUSH2 0xE1A PUSH2 0x2589 JUMP JUMPDEST PUSH1 0x0 SWAP2 DUP3 MSTORE PUSH1 0x20 SWAP1 SWAP2 KECCAK256 PUSH1 0x9 SWAP1 SWAP2 MUL ADD SLOAD PUSH1 0x40 MLOAD PUSH2 0xE3E SWAP2 PUSH1 0xFF AND SWAP1 PUSH1 0x4 SWAP1 PUSH2 0x27AB JUMP JUMPDEST PUSH1 0x40 MLOAD DUP1 SWAP2 SUB SWAP1 LOG1 PUSH1 0x4 PUSH1 0x1 PUSH1 0x2 SLOAD DUP2 SLOAD DUP2 LT PUSH2 0xE5D JUMPI PUSH2 0xE5D PUSH2 0x2589 JUMP JUMPDEST PUSH1 0x0 SWAP2 DUP3 MSTORE PUSH1 0x20 SWAP1 SWAP2 KECCAK256 PUSH1 0x9 SWAP1 SWAP2 MUL ADD DUP1 SLOAD PUSH1 0xFF NOT AND PUSH1 0x1 DUP4 PUSH1 0x5 DUP2 GT ISZERO PUSH2 0xE87 JUMPI PUSH2 0xE87 PUSH2 0x2265 JUMP JUMPDEST MUL OR SWAP1 SSTORE POP JUMP JUMPDEST PUSH2 0xE96 PUSH2 0x2091 JUMP JUMPDEST PUSH1 0x0 DUP1 MLOAD PUSH1 0x20 PUSH2 0x28EA DUP4 CODECOPY DUP2 MLOAD SWAP2 MSTORE PUSH1 0x1 PUSH1 0x2 SLOAD DUP2 SLOAD DUP2 LT PUSH2 0xEBA JUMPI PUSH2 0xEBA PUSH2 0x2589 JUMP JUMPDEST PUSH1 0x0 SWAP2 DUP3 MSTORE PUSH1 0x20 SWAP1 SWAP2 KECCAK256 PUSH1 0x9 SWAP1 SWAP2 MUL ADD SLOAD PUSH1 0x40 MLOAD PUSH2 0xEDE SWAP2 PUSH1 0xFF AND SWAP1 PUSH1 0x1 SWAP1 PUSH2 0x27AB JUMP JUMPDEST PUSH1 0x40 MLOAD DUP1 SWAP2 SUB SWAP1 LOG1 PUSH1 0x1 DUP1 PUSH1 0x2 SLOAD DUP2 SLOAD DUP2 LT PUSH2 0xE5D JUMPI PUSH2 0xE5D PUSH2 0x2589 JUMP JUMPDEST PUSH2 0xF04 PUSH2 0x21ED JUMP JUMPDEST PUSH1 0x1 SLOAD DUP3 SWAP1 DUP2 LT PUSH2 0xF27 JUMPI PUSH1 0x40 MLOAD PUSH3 0x461BCD PUSH1 0xE5 SHL DUP2 MSTORE PUSH1 0x4 ADD PUSH2 0x4B2 SWAP1 PUSH2 0x27C6 JUMP JUMPDEST PUSH1 0x1 DUP2 DUP2 SLOAD DUP2 LT PUSH2 0xF3A JUMPI PUSH2 0xF3A PUSH2 0x2589 JUMP JUMPDEST PUSH1 0x0 SWAP2 DUP3 MSTORE PUSH1 0x20 SWAP1 SWAP2 KECCAK256 PUSH1 0x6 PUSH1 0x9 SWAP1 SWAP3 MUL ADD ADD SLOAD PUSH1 0xFF AND PUSH2 0xF97 JUMPI PUSH1 0x40 MLOAD PUSH3 0x461BCD PUSH1 0xE5 SHL DUP2 MSTORE PUSH1 0x20 PUSH1 0x4 DUP3 ADD MSTORE PUSH1 0x17 PUSH1 0x24 DUP3 ADD MSTORE PUSH23 0x139BC81CD95CDCDA5BDB8B08185B1C9958591E481CD95D PUSH1 0x4A SHL PUSH1 0x44 DUP3 ADD MSTORE PUSH1 0x64 ADD PUSH2 0x4B2 JUMP JUMPDEST PUSH1 0x40 MLOAD DUP1 PUSH1 0x80 ADD PUSH1 0x40 MSTORE DUP1 PUSH1 0x1 DUP6 DUP2 SLOAD DUP2 LT PUSH2 0xFB5 JUMPI PUSH2 0xFB5 PUSH2 0x2589 JUMP JUMPDEST PUSH1 0x0 SWAP2 DUP3 MSTORE PUSH1 0x20 SWAP1 SWAP2 KECCAK256 PUSH1 0x9 SWAP1 SWAP2 MUL ADD SLOAD PUSH1 0xFF AND PUSH1 0x5 DUP2 GT ISZERO PUSH2 0xFDA JUMPI PUSH2 0xFDA PUSH2 0x2265 JUMP JUMPDEST DUP2 MSTORE PUSH1 0x20 ADD PUSH1 0x1 DUP6 DUP2 SLOAD DUP2 LT PUSH2 0xFF2 JUMPI PUSH2 0xFF2 PUSH2 0x2589 JUMP JUMPDEST SWAP1 PUSH1 0x0 MSTORE PUSH1 0x20 PUSH1 0x0 KECCAK256 SWAP1 PUSH1 0x9 MUL ADD PUSH1 0x0 ADD PUSH1 0x1 SWAP1 SLOAD SWAP1 PUSH2 0x100 EXP SWAP1 DIV PUSH1 0xFF AND ISZERO ISZERO DUP2 MSTORE PUSH1 0x20 ADD PUSH1 0x1 DUP6 DUP2 SLOAD DUP2 LT PUSH2 0x102B JUMPI PUSH2 0x102B PUSH2 0x2589 JUMP JUMPDEST SWAP1 PUSH1 0x0 MSTORE PUSH1 0x20 PUSH1 0x0 KECCAK256 SWAP1 PUSH1 0x9 MUL ADD PUSH1 0x1 ADD DUP1 SLOAD DUP1 PUSH1 0x20 MUL PUSH1 0x20 ADD PUSH1 0x40 MLOAD SWAP1 DUP2 ADD PUSH1 0x40 MSTORE DUP1 SWAP3 SWAP2 SWAP1 DUP2 DUP2 MSTORE PUSH1 0x20 ADD PUSH1 0x0 SWAP1 JUMPDEST DUP3 DUP3 LT ISZERO PUSH2 0x114D JUMPI DUP4 DUP3 SWAP1 PUSH1 0x0 MSTORE PUSH1 0x20 PUSH1 0x0 KECCAK256 SWAP1 PUSH1 0x4 MUL ADD PUSH1 0x40 MLOAD DUP1 PUSH1 0x80 ADD PUSH1 0x40 MSTORE SWAP1 DUP2 PUSH1 0x0 DUP3 ADD SLOAD DUP2 MSTORE PUSH1 0x20 ADD PUSH1 0x1 DUP3 ADD DUP1 SLOAD PUSH2 0x1099 SWAP1 PUSH2 0x2612 JUMP JUMPDEST DUP1 PUSH1 0x1F ADD PUSH1 0x20 DUP1 SWAP2 DIV MUL PUSH1 0x20 ADD PUSH1 0x40 MLOAD SWAP1 DUP2 ADD PUSH1 0x40 MSTORE DUP1 SWAP3 SWAP2 SWAP1 DUP2 DUP2 MSTORE PUSH1 0x20 ADD DUP3 DUP1 SLOAD PUSH2 0x10C5 SWAP1 PUSH2 0x2612 JUMP JUMPDEST DUP1 ISZERO PUSH2 0x1112 JUMPI DUP1 PUSH1 0x1F LT PUSH2 0x10E7 JUMPI PUSH2 0x100 DUP1 DUP4 SLOAD DIV MUL DUP4 MSTORE SWAP2 PUSH1 0x20 ADD SWAP2 PUSH2 0x1112 JUMP JUMPDEST DUP3 ADD SWAP2 SWAP1 PUSH1 0x0 MSTORE PUSH1 0x20 PUSH1 0x0 KECCAK256 SWAP1 JUMPDEST DUP2 SLOAD DUP2 MSTORE SWAP1 PUSH1 0x1 ADD SWAP1 PUSH1 0x20 ADD DUP1 DUP4 GT PUSH2 0x10F5 JUMPI DUP3 SWAP1 SUB PUSH1 0x1F AND DUP3 ADD SWAP2 JUMPDEST POP POP POP SWAP2 DUP4 MSTORE POP POP PUSH1 0x2 DUP3 ADD SLOAD PUSH1 0x20 DUP1 DUP4 ADD SWAP2 SWAP1 SWAP2 MSTORE PUSH1 0x3 SWAP1 SWAP3 ADD SLOAD PUSH1 0x1 PUSH1 0x1 PUSH1 0xA0 SHL SUB AND PUSH1 0x40 SWAP1 SWAP2 ADD MSTORE SWAP1 DUP3 MSTORE PUSH1 0x1 SWAP3 SWAP1 SWAP3 ADD SWAP2 ADD PUSH2 0x105C JUMP JUMPDEST POP POP POP POP DUP2 MSTORE PUSH1 0x20 ADD PUSH1 0x1 DUP6 DUP2 SLOAD DUP2 LT PUSH2 0x1169 JUMPI PUSH2 0x1169 PUSH2 0x2589 JUMP JUMPDEST SWAP1 PUSH1 0x0 MSTORE PUSH1 0x20 PUSH1 0x0 KECCAK256 SWAP1 PUSH1 0x9 MUL ADD PUSH1 0x2 ADD PUSH1 0x40 MLOAD DUP1 PUSH1 0x80 ADD PUSH1 0x40 MSTORE SWAP1 DUP2 PUSH1 0x0 DUP3 ADD SLOAD DUP2 MSTORE PUSH1 0x20 ADD PUSH1 0x1 DUP3 ADD DUP1 SLOAD PUSH2 0x119F SWAP1 PUSH2 0x2612 JUMP JUMPDEST DUP1 PUSH1 0x1F ADD PUSH1 0x20 DUP1 SWAP2 DIV MUL PUSH1 0x20 ADD PUSH1 0x40 MLOAD SWAP1 DUP2 ADD PUSH1 0x40 MSTORE DUP1 SWAP3 SWAP2 SWAP1 DUP2 DUP2 MSTORE PUSH1 0x20 ADD DUP3 DUP1 SLOAD PUSH2 0x11CB SWAP1 PUSH2 0x2612 JUMP JUMPDEST DUP1 ISZERO PUSH2 0x1218 JUMPI DUP1 PUSH1 0x1F LT PUSH2 0x11ED JUMPI PUSH2 0x100 DUP1 DUP4 SLOAD DIV MUL DUP4 MSTORE SWAP2 PUSH1 0x20 ADD SWAP2 PUSH2 0x1218 JUMP JUMPDEST DUP3 ADD SWAP2 SWAP1 PUSH1 0x0 MSTORE PUSH1 0x20 PUSH1 0x0 KECCAK256 SWAP1 JUMPDEST DUP2 SLOAD DUP2 MSTORE SWAP1 PUSH1 0x1 ADD SWAP1 PUSH1 0x20 ADD DUP1 DUP4 GT PUSH2 0x11FB JUMPI DUP3 SWAP1 SUB PUSH1 0x1F AND DUP3 ADD SWAP2 JUMPDEST POP POP POP SWAP2 DUP4 MSTORE POP POP PUSH1 0x2 DUP3 ADD SLOAD PUSH1 0x20 DUP3 ADD MSTORE PUSH1 0x3 SWAP1 SWAP2 ADD SLOAD PUSH1 0x1 PUSH1 0x1 PUSH1 0xA0 SHL SUB AND PUSH1 0x40 SWAP1 SWAP2 ADD MSTORE SWAP1 MSTORE SWAP2 POP JUMPDEST POP SWAP2 SWAP1 POP JUMP JUMPDEST PUSH2 0x1252 PUSH2 0x2091 JUMP JUMPDEST PUSH1 0x1 DUP1 PUSH1 0x2 SLOAD DUP2 SLOAD DUP2 LT PUSH2 0x1268 JUMPI PUSH2 0x1268 PUSH2 0x2589 JUMP JUMPDEST PUSH1 0x0 SWAP2 DUP3 MSTORE PUSH1 0x20 SWAP1 SWAP2 KECCAK256 PUSH1 0x9 SWAP1 SWAP2 MUL ADD SLOAD PUSH1 0xFF AND PUSH1 0x5 DUP2 GT ISZERO PUSH2 0x128D JUMPI PUSH2 0x128D PUSH2 0x2265 JUMP JUMPDEST EQ PUSH2 0x12EA JUMPI PUSH1 0x40 MLOAD PUSH3 0x461BCD PUSH1 0xE5 SHL DUP2 MSTORE PUSH1 0x20 PUSH1 0x4 DUP3 ADD MSTORE PUSH1 0x27 PUSH1 0x24 DUP3 ADD MSTORE PUSH32 0x737461747573206E6F742050726F706F73616C73526567697374726174696F6E PUSH1 0x44 DUP3 ADD MSTORE PUSH7 0x14DD185C9D1959 PUSH1 0xCA SHL PUSH1 0x64 DUP3 ADD MSTORE PUSH1 0x84 ADD PUSH2 0x4B2 JUMP JUMPDEST PUSH1 0x0 PUSH1 0x1 PUSH1 0x2 SLOAD DUP2 SLOAD DUP2 LT PUSH2 0x1301 JUMPI PUSH2 0x1301 PUSH2 0x2589 JUMP JUMPDEST SWAP1 PUSH1 0x0 MSTORE PUSH1 0x20 PUSH1 0x0 KECCAK256 SWAP1 PUSH1 0x9 MUL ADD PUSH1 0x1 ADD DUP1 SLOAD SWAP1 POP SWAP1 POP PUSH1 0x0 PUSH1 0x40 MLOAD DUP1 PUSH1 0x80 ADD PUSH1 0x40 MSTORE DUP1 DUP4 PUSH1 0x1 PUSH2 0x1332 SWAP2 SWAP1 PUSH2 0x25FF JUMP JUMPDEST DUP2 MSTORE PUSH1 0x20 ADD PUSH1 0x40 MLOAD DUP1 PUSH1 0x40 ADD PUSH1 0x40 MSTORE DUP1 PUSH1 0xA DUP2 MSTORE PUSH1 0x20 ADD PUSH10 0x566F746520426C616E63 PUSH1 0xB0 SHL DUP2 MSTORE POP DUP2 MSTORE PUSH1 0x20 ADD PUSH1 0x0 DUP2 MSTORE PUSH1 0x20 ADD CALLER PUSH1 0x1 PUSH1 0x1 PUSH1 0xA0 SHL SUB AND DUP2 MSTORE POP SWAP1 POP PUSH1 0x1 PUSH1 0x2 SLOAD DUP2 SLOAD DUP2 LT PUSH2 0x138A JUMPI PUSH2 0x138A PUSH2 0x2589 JUMP JUMPDEST PUSH1 0x0 SWAP2 DUP3 MSTORE PUSH1 0x20 DUP1 DUP4 KECCAK256 PUSH1 0x1 PUSH1 0x9 SWAP1 SWAP4 MUL ADD DUP3 ADD DUP1 SLOAD DUP1 DUP5 ADD DUP3 SSTORE SWAP1 DUP5 MSTORE SWAP3 DUP2 SWAP1 KECCAK256 DUP5 MLOAD PUSH1 0x4 SWAP1 SWAP5 MUL ADD SWAP3 DUP4 SSTORE DUP4 ADD MLOAD DUP4 SWAP3 SWAP2 DUP3 ADD SWAP1 PUSH2 0x13CA SWAP1 DUP3 PUSH2 0x26C0 JUMP JUMPDEST POP PUSH1 0x40 DUP3 ADD MLOAD DUP2 PUSH1 0x2 ADD SSTORE PUSH1 0x60 DUP3 ADD MLOAD DUP2 PUSH1 0x3 ADD PUSH1 0x0 PUSH2 0x100 EXP DUP2 SLOAD DUP2 PUSH1 0x1 PUSH1 0x1 PUSH1 0xA0 SHL SUB MUL NOT AND SWAP1 DUP4 PUSH1 0x1 PUSH1 0x1 PUSH1 0xA0 SHL SUB AND MUL OR SWAP1 SSTORE POP POP POP PUSH1 0x0 DUP1 MLOAD PUSH1 0x20 PUSH2 0x28EA DUP4 CODECOPY DUP2 MLOAD SWAP2 MSTORE PUSH1 0x1 PUSH1 0x2 SLOAD DUP2 SLOAD DUP2 LT PUSH2 0x1428 JUMPI PUSH2 0x1428 PUSH2 0x2589 JUMP JUMPDEST PUSH1 0x0 SWAP2 DUP3 MSTORE PUSH1 0x20 SWAP1 SWAP2 KECCAK256 PUSH1 0x9 SWAP1 SWAP2 MUL ADD SLOAD PUSH1 0x40 MLOAD PUSH2 0x144C SWAP2 PUSH1 0xFF AND SWAP1 PUSH1 0x2 SWAP1 PUSH2 0x27AB JUMP JUMPDEST PUSH1 0x40 MLOAD DUP1 SWAP2 SUB SWAP1 LOG1 PUSH1 0x2 PUSH1 0x1 PUSH1 0x2 SLOAD DUP2 SLOAD DUP2 LT PUSH2 0x146B JUMPI PUSH2 0x146B PUSH2 0x2589 JUMP JUMPDEST PUSH1 0x0 SWAP2 DUP3 MSTORE PUSH1 0x20 SWAP1 SWAP2 KECCAK256 PUSH1 0x9 SWAP1 SWAP2 MUL ADD DUP1 SLOAD PUSH1 0xFF NOT AND PUSH1 0x1 DUP4 PUSH1 0x5 DUP2 GT ISZERO PUSH2 0x1495 JUMPI PUSH2 0x1495 PUSH2 0x2265 JUMP JUMPDEST MUL OR SWAP1 SSTORE POP POP POP JUMP JUMPDEST PUSH2 0x14A6 PUSH2 0x2091 JUMP JUMPDEST PUSH2 0x14B0 PUSH1 0x0 PUSH2 0x20C3 JUMP JUMPDEST JUMP JUMPDEST PUSH2 0x14BA PUSH2 0x2091 JUMP JUMPDEST PUSH1 0x0 PUSH1 0x1 PUSH1 0x2 SLOAD DUP2 SLOAD DUP2 LT PUSH2 0x14D1 JUMPI PUSH2 0x14D1 PUSH2 0x2589 JUMP JUMPDEST PUSH1 0x0 SWAP2 DUP3 MSTORE PUSH1 0x20 DUP1 DUP4 KECCAK256 PUSH1 0x1 PUSH1 0x1 PUSH1 0xA0 SHL SUB DUP7 AND DUP5 MSTORE PUSH1 0x9 SWAP3 SWAP1 SWAP3 MUL SWAP1 SWAP2 ADD PUSH1 0x7 ADD SWAP1 MSTORE PUSH1 0x40 SWAP1 KECCAK256 DUP1 SLOAD PUSH1 0xFF NOT AND SWAP2 ISZERO ISZERO SWAP2 SWAP1 SWAP2 OR SWAP1 SSTORE PUSH1 0x2 SLOAD PUSH1 0x1 DUP1 SLOAD SWAP1 SWAP2 DUP3 SWAP2 DUP2 LT PUSH2 0x1521 JUMPI PUSH2 0x1521 PUSH2 0x2589 JUMP JUMPDEST PUSH1 0x0 SWAP2 DUP3 MSTORE PUSH1 0x20 DUP1 DUP4 KECCAK256 PUSH1 0x1 PUSH1 0x1 PUSH1 0xA0 SHL SUB DUP7 AND DUP5 MSTORE PUSH1 0x9 SWAP3 SWAP1 SWAP3 MUL SWAP1 SWAP2 ADD PUSH1 0x8 ADD SWAP1 MSTORE PUSH1 0x40 SWAP1 DUP2 SWAP1 KECCAK256 DUP1 SLOAD PUSH1 0xFF NOT AND SWAP3 ISZERO ISZERO SWAP3 SWAP1 SWAP3 OR SWAP1 SWAP2 SSTORE MLOAD PUSH31 0x8471FA6BFDB5180799DD866E4F409ADD503A3A060686D106F4015AAC5483D0 SWAP1 PUSH2 0x6E6 SWAP1 DUP4 SWAP1 PUSH2 0x248F JUMP JUMPDEST PUSH2 0x1590 PUSH2 0x2091 JUMP JUMPDEST PUSH1 0x1 PUSH1 0x2 SLOAD DUP2 SLOAD DUP2 LT PUSH2 0x15A5 JUMPI PUSH2 0x15A5 PUSH2 0x2589 JUMP JUMPDEST PUSH1 0x0 SWAP2 DUP3 MSTORE PUSH1 0x20 DUP1 DUP4 KECCAK256 PUSH1 0x1 PUSH1 0x1 PUSH1 0xA0 SHL SUB DUP6 AND DUP5 MSTORE PUSH1 0x7 PUSH1 0x9 SWAP1 SWAP4 MUL ADD SWAP2 SWAP1 SWAP2 ADD SWAP1 MSTORE PUSH1 0x40 SWAP1 KECCAK256 SLOAD PUSH1 0xFF AND PUSH2 0x15DA JUMPI PUSH1 0x0 DUP1 REVERT JUMPDEST PUSH1 0x40 MLOAD DUP1 PUSH1 0x60 ADD PUSH1 0x40 MSTORE DUP1 PUSH1 0x0 ISZERO ISZERO DUP2 MSTORE PUSH1 0x20 ADD PUSH1 0x0 ISZERO ISZERO DUP2 MSTORE PUSH1 0x20 ADD PUSH1 0x0 DUP2 MSTORE POP PUSH1 0x1 PUSH1 0x2 SLOAD DUP2 SLOAD DUP2 LT PUSH2 0x1611 JUMPI PUSH2 0x1611 PUSH2 0x2589 JUMP JUMPDEST PUSH1 0x0 SWAP2 DUP3 MSTORE PUSH1 0x20 DUP1 DUP4 KECCAK256 PUSH1 0x1 PUSH1 0x1 PUSH1 0xA0 SHL SUB DUP7 AND DUP5 MSTORE PUSH1 0x9 SWAP3 SWAP1 SWAP3 MUL SWAP1 SWAP2 ADD PUSH1 0x7 ADD DUP2 MSTORE PUSH1 0x40 SWAP2 DUP3 SWAP1 KECCAK256 DUP4 MLOAD DUP2 SLOAD SWAP3 DUP6 ADD MLOAD PUSH2 0xFFFF NOT SWAP1 SWAP4 AND SWAP1 ISZERO ISZERO PUSH2 0xFF00 NOT AND OR PUSH2 0x100 SWAP3 ISZERO ISZERO SWAP3 SWAP1 SWAP3 MUL SWAP2 SWAP1 SWAP2 OR DUP2 SSTORE SWAP2 DUP2 ADD MLOAD PUSH1 0x1 SWAP1 SWAP3 ADD SWAP2 SWAP1 SWAP2 SSTORE MLOAD PUSH32 0xBCBAAFD5B6B0BDADB54E1319AF760BD09FC531FCF01B485E0A623E0EB0DFA8F7 SWAP1 PUSH2 0x6E6 SWAP1 DUP4 SWAP1 PUSH2 0x248F JUMP JUMPDEST PUSH1 0x0 SLOAD PUSH1 0x1 PUSH1 0x1 PUSH1 0xA0 SHL SUB AND SWAP1 JUMP JUMPDEST PUSH2 0x16B5 PUSH2 0x221B JUMP JUMPDEST PUSH1 0x1 PUSH1 0x2 SLOAD DUP2 SLOAD DUP2 LT PUSH2 0x16CA JUMPI PUSH2 0x16CA PUSH2 0x2589 JUMP JUMPDEST SWAP1 PUSH1 0x0 MSTORE PUSH1 0x20 PUSH1 0x0 KECCAK256 SWAP1 PUSH1 0x9 MUL ADD PUSH1 0x2 ADD PUSH1 0x40 MLOAD DUP1 PUSH1 0x80 ADD PUSH1 0x40 MSTORE SWAP1 DUP2 PUSH1 0x0 DUP3 ADD SLOAD DUP2 MSTORE PUSH1 0x20 ADD PUSH1 0x1 DUP3 ADD DUP1 SLOAD PUSH2 0x1700 SWAP1 PUSH2 0x2612 JUMP JUMPDEST DUP1 PUSH1 0x1F ADD PUSH1 0x20 DUP1 SWAP2 DIV MUL PUSH1 0x20 ADD PUSH1 0x40 MLOAD SWAP1 DUP2 ADD PUSH1 0x40 MSTORE DUP1 SWAP3 SWAP2 SWAP1 DUP2 DUP2 MSTORE PUSH1 0x20 ADD DUP3 DUP1 SLOAD PUSH2 0x172C SWAP1 PUSH2 0x2612 JUMP JUMPDEST DUP1 ISZERO PUSH2 0x1779 JUMPI DUP1 PUSH1 0x1F LT PUSH2 0x174E JUMPI PUSH2 0x100 DUP1 DUP4 SLOAD DIV MUL DUP4 MSTORE SWAP2 PUSH1 0x20 ADD SWAP2 PUSH2 0x1779 JUMP JUMPDEST DUP3 ADD SWAP2 SWAP1 PUSH1 0x0 MSTORE PUSH1 0x20 PUSH1 0x0 KECCAK256 SWAP1 JUMPDEST DUP2 SLOAD DUP2 MSTORE SWAP1 PUSH1 0x1 ADD SWAP1 PUSH1 0x20 ADD DUP1 DUP4 GT PUSH2 0x175C JUMPI DUP3 SWAP1 SUB PUSH1 0x1F AND DUP3 ADD SWAP2 JUMPDEST POP POP POP SWAP2 DUP4 MSTORE POP POP PUSH1 0x2 DUP3 ADD SLOAD PUSH1 0x20 DUP3 ADD MSTORE PUSH1 0x3 SWAP1 SWAP2 ADD SLOAD PUSH1 0x1 PUSH1 0x1 PUSH1 0xA0 SHL SUB AND PUSH1 0x40 SWAP1 SWAP2 ADD MSTORE SWAP2 SWAP1 POP JUMP JUMPDEST PUSH1 0x1 SLOAD PUSH1 0x0 SWAP1 DUP3 LT PUSH2 0x17C9 JUMPI PUSH1 0x40 MLOAD PUSH3 0x461BCD PUSH1 0xE5 SHL DUP2 MSTORE PUSH1 0x4 ADD PUSH2 0x4B2 SWAP1 PUSH2 0x27C6 JUMP JUMPDEST PUSH1 0x1 DUP3 DUP2 SLOAD DUP2 LT PUSH2 0x17DC JUMPI PUSH2 0x17DC PUSH2 0x2589 JUMP JUMPDEST PUSH1 0x0 SWAP2 DUP3 MSTORE PUSH1 0x20 SWAP1 SWAP2 KECCAK256 PUSH1 0x9 SWAP1 SWAP2 MUL ADD SLOAD PUSH1 0xFF AND SWAP3 SWAP2 POP POP JUMP JUMPDEST PUSH2 0x17FE PUSH2 0x2091 JUMP JUMPDEST PUSH1 0x1 DUP1 PUSH1 0x2 SLOAD DUP2 SLOAD DUP2 LT PUSH2 0x1814 JUMPI PUSH2 0x1814 PUSH2 0x2589 JUMP JUMPDEST PUSH1 0x0 SWAP2 DUP3 MSTORE PUSH1 0x20 SWAP1 SWAP2 KECCAK256 PUSH1 0x9 SWAP1 SWAP2 MUL ADD SLOAD PUSH1 0xFF AND PUSH1 0x5 DUP2 GT ISZERO PUSH2 0x1839 JUMPI PUSH2 0x1839 PUSH2 0x2265 JUMP JUMPDEST EQ PUSH2 0xE96 JUMPI PUSH1 0x40 MLOAD PUSH3 0x461BCD PUSH1 0xE5 SHL DUP2 MSTORE PUSH1 0x20 PUSH1 0x4 DUP3 ADD MSTORE PUSH1 0x2E PUSH1 0x24 DUP3 ADD MSTORE PUSH32 0x54686520737461747573206973206E6F742050726F706F73616C735265676973 PUSH1 0x44 DUP3 ADD MSTORE PUSH14 0x1D1C985D1A5BDB94DD185C9D1959 PUSH1 0x92 SHL PUSH1 0x64 DUP3 ADD MSTORE PUSH1 0x84 ADD PUSH2 0x4B2 JUMP JUMPDEST PUSH2 0x18A5 PUSH2 0x2091 JUMP JUMPDEST PUSH1 0x4 PUSH1 0x1 PUSH1 0x2 SLOAD DUP2 SLOAD DUP2 LT PUSH2 0x18BC JUMPI PUSH2 0x18BC PUSH2 0x2589 JUMP JUMPDEST PUSH1 0x0 SWAP2 DUP3 MSTORE PUSH1 0x20 SWAP1 SWAP2 KECCAK256 PUSH1 0x9 SWAP1 SWAP2 MUL ADD SLOAD PUSH1 0xFF AND PUSH1 0x5 DUP2 GT ISZERO PUSH2 0x18E1 JUMPI PUSH2 0x18E1 PUSH2 0x2265 JUMP JUMPDEST EQ PUSH2 0x18FE JUMPI PUSH1 0x40 MLOAD PUSH3 0x461BCD PUSH1 0xE5 SHL DUP2 MSTORE PUSH1 0x4 ADD PUSH2 0x4B2 SWAP1 PUSH2 0x277A JUMP JUMPDEST PUSH1 0x0 PUSH1 0x1 PUSH1 0x2 SLOAD DUP2 SLOAD DUP2 LT PUSH2 0x1915 JUMPI PUSH2 0x1915 PUSH2 0x2589 JUMP JUMPDEST SWAP1 PUSH1 0x0 MSTORE PUSH1 0x20 PUSH1 0x0 KECCAK256 SWAP1 PUSH1 0x9 MUL ADD PUSH1 0x1 ADD PUSH1 0x0 DUP2 SLOAD DUP2 LT PUSH2 0x1938 JUMPI PUSH2 0x1938 PUSH2 0x2589 JUMP JUMPDEST SWAP1 PUSH1 0x0 MSTORE PUSH1 0x20 PUSH1 0x0 KECCAK256 SWAP1 PUSH1 0x4 MUL ADD PUSH1 0x2 ADD SLOAD SWAP1 POP PUSH1 0x0 PUSH1 0x1 PUSH1 0x2 SLOAD DUP2 SLOAD DUP2 LT PUSH2 0x1963 JUMPI PUSH2 0x1963 PUSH2 0x2589 JUMP JUMPDEST SWAP1 PUSH1 0x0 MSTORE PUSH1 0x20 PUSH1 0x0 KECCAK256 SWAP1 PUSH1 0x9 MUL ADD PUSH1 0x1 ADD PUSH1 0x0 DUP2 SLOAD DUP2 LT PUSH2 0x1986 JUMPI PUSH2 0x1986 PUSH2 0x2589 JUMP JUMPDEST SWAP1 PUSH1 0x0 MSTORE PUSH1 0x20 PUSH1 0x0 KECCAK256 SWAP1 PUSH1 0x4 MUL ADD SWAP1 POP PUSH1 0x0 PUSH1 0x1 SWAP1 POP JUMPDEST PUSH1 0x1 PUSH1 0x2 SLOAD DUP2 SLOAD DUP2 LT PUSH2 0x19B2 JUMPI PUSH2 0x19B2 PUSH2 0x2589 JUMP JUMPDEST SWAP1 PUSH1 0x0 MSTORE PUSH1 0x20 PUSH1 0x0 KECCAK256 SWAP1 PUSH1 0x9 MUL ADD PUSH1 0x1 ADD DUP1 SLOAD SWAP1 POP DUP2 LT ISZERO PUSH2 0x1AC3 JUMPI PUSH1 0x1 PUSH1 0x2 SLOAD DUP2 SLOAD DUP2 LT PUSH2 0x19E3 JUMPI PUSH2 0x19E3 PUSH2 0x2589 JUMP JUMPDEST SWAP1 PUSH1 0x0 MSTORE PUSH1 0x20 PUSH1 0x0 KECCAK256 SWAP1 PUSH1 0x9 MUL ADD PUSH1 0x1 ADD DUP2 DUP2 SLOAD DUP2 LT PUSH2 0x1A05 JUMPI PUSH2 0x1A05 PUSH2 0x2589 JUMP JUMPDEST SWAP1 PUSH1 0x0 MSTORE PUSH1 0x20 PUSH1 0x0 KECCAK256 SWAP1 PUSH1 0x4 MUL ADD PUSH1 0x2 ADD SLOAD DUP4 LT ISZERO PUSH2 0x1AB1 JUMPI PUSH1 0x1 PUSH1 0x2 SLOAD DUP2 SLOAD DUP2 LT PUSH2 0x1A33 JUMPI PUSH2 0x1A33 PUSH2 0x2589 JUMP JUMPDEST SWAP1 PUSH1 0x0 MSTORE PUSH1 0x20 PUSH1 0x0 KECCAK256 SWAP1 PUSH1 0x9 MUL ADD PUSH1 0x1 ADD DUP2 DUP2 SLOAD DUP2 LT PUSH2 0x1A55 JUMPI PUSH2 0x1A55 PUSH2 0x2589 JUMP JUMPDEST SWAP1 PUSH1 0x0 MSTORE PUSH1 0x20 PUSH1 0x0 KECCAK256 SWAP1 PUSH1 0x4 MUL ADD PUSH1 0x2 ADD SLOAD SWAP3 POP PUSH1 0x1 PUSH1 0x2 SLOAD DUP2 SLOAD DUP2 LT PUSH2 0x1A7E JUMPI PUSH2 0x1A7E PUSH2 0x2589 JUMP JUMPDEST SWAP1 PUSH1 0x0 MSTORE PUSH1 0x20 PUSH1 0x0 KECCAK256 SWAP1 PUSH1 0x9 MUL ADD PUSH1 0x1 ADD DUP2 DUP2 SLOAD DUP2 LT PUSH2 0x1AA0 JUMPI PUSH2 0x1AA0 PUSH2 0x2589 JUMP JUMPDEST SWAP1 PUSH1 0x0 MSTORE PUSH1 0x20 PUSH1 0x0 KECCAK256 SWAP1 PUSH1 0x4 MUL ADD SWAP2 POP JUMPDEST DUP1 PUSH2 0x1ABB DUP2 PUSH2 0x27FB JUMP JUMPDEST SWAP2 POP POP PUSH2 0x199D JUMP JUMPDEST POP DUP1 PUSH1 0x1 PUSH1 0x2 SLOAD DUP2 SLOAD DUP2 LT PUSH2 0x1ADA JUMPI PUSH2 0x1ADA PUSH2 0x2589 JUMP JUMPDEST SWAP1 PUSH1 0x0 MSTORE PUSH1 0x20 PUSH1 0x0 KECCAK256 SWAP1 PUSH1 0x9 MUL ADD PUSH1 0x2 ADD PUSH1 0x0 DUP3 ADD SLOAD DUP2 PUSH1 0x0 ADD SSTORE PUSH1 0x1 DUP3 ADD DUP2 PUSH1 0x1 ADD SWAP1 DUP2 PUSH2 0x1B09 SWAP2 SWAP1 PUSH2 0x2814 JUMP JUMPDEST POP PUSH1 0x2 DUP3 DUP2 ADD SLOAD DUP3 DUP3 ADD SSTORE PUSH1 0x3 SWAP3 DUP4 ADD SLOAD SWAP3 SWAP1 SWAP2 ADD DUP1 SLOAD PUSH1 0x1 PUSH1 0x1 PUSH1 0xA0 SHL SUB NOT AND PUSH1 0x1 PUSH1 0x1 PUSH1 0xA0 SHL SUB SWAP1 SWAP4 AND SWAP3 SWAP1 SWAP3 OR SWAP1 SWAP2 SSTORE SLOAD PUSH1 0x1 DUP1 SLOAD PUSH1 0x0 DUP1 MLOAD PUSH1 0x20 PUSH2 0x28EA DUP4 CODECOPY DUP2 MLOAD SWAP2 MSTORE SWAP3 SWAP1 DUP2 LT PUSH2 0x1B60 JUMPI PUSH2 0x1B60 PUSH2 0x2589 JUMP JUMPDEST PUSH1 0x0 SWAP2 DUP3 MSTORE PUSH1 0x20 SWAP1 SWAP2 KECCAK256 PUSH1 0x9 SWAP1 SWAP2 MUL ADD SLOAD PUSH1 0x40 MLOAD PUSH2 0x1B84 SWAP2 PUSH1 0xFF AND SWAP1 PUSH1 0x5 SWAP1 PUSH2 0x27AB JUMP JUMPDEST PUSH1 0x40 MLOAD DUP1 SWAP2 SUB SWAP1 LOG1 PUSH1 0x5 PUSH1 0x1 PUSH1 0x2 SLOAD DUP2 SLOAD DUP2 LT PUSH2 0x146B JUMPI PUSH2 0x146B PUSH2 0x2589 JUMP JUMPDEST PUSH1 0x1 DUP2 DUP2 SLOAD DUP2 LT PUSH2 0x1BB3 JUMPI PUSH1 0x0 DUP1 REVERT JUMPDEST PUSH1 0x0 SWAP2 DUP3 MSTORE PUSH1 0x20 SWAP2 DUP3 SWAP1 KECCAK256 PUSH1 0x9 SWAP1 SWAP2 MUL ADD DUP1 SLOAD PUSH1 0x40 DUP1 MLOAD PUSH1 0x80 DUP2 ADD SWAP1 SWAP2 MSTORE PUSH1 0x2 DUP4 ADD DUP1 SLOAD DUP3 MSTORE PUSH1 0x3 DUP5 ADD DUP1 SLOAD PUSH1 0xFF DUP1 DUP7 AND SWAP9 POP PUSH2 0x100 SWAP1 SWAP6 DIV SWAP1 SWAP5 AND SWAP6 SWAP3 SWAP4 SWAP2 SWAP3 DUP5 ADD SWAP2 PUSH2 0x1C00 SWAP1 PUSH2 0x2612 JUMP JUMPDEST DUP1 PUSH1 0x1F ADD PUSH1 0x20 DUP1 SWAP2 DIV MUL PUSH1 0x20 ADD PUSH1 0x40 MLOAD SWAP1 DUP2 ADD PUSH1 0x40 MSTORE DUP1 SWAP3 SWAP2 SWAP1 DUP2 DUP2 MSTORE PUSH1 0x20 ADD DUP3 DUP1 SLOAD PUSH2 0x1C2C SWAP1 PUSH2 0x2612 JUMP JUMPDEST DUP1 ISZERO PUSH2 0x1C79 JUMPI DUP1 PUSH1 0x1F LT PUSH2 0x1C4E JUMPI PUSH2 0x100 DUP1 DUP4 SLOAD DIV MUL DUP4 MSTORE SWAP2 PUSH1 0x20 ADD SWAP2 PUSH2 0x1C79 JUMP JUMPDEST DUP3 ADD SWAP2 SWAP1 PUSH1 0x0 MSTORE PUSH1 0x20 PUSH1 0x0 KECCAK256 SWAP1 JUMPDEST DUP2 SLOAD DUP2 MSTORE SWAP1 PUSH1 0x1 ADD SWAP1 PUSH1 0x20 ADD DUP1 DUP4 GT PUSH2 0x1C5C JUMPI DUP3 SWAP1 SUB PUSH1 0x1F AND DUP3 ADD SWAP2 JUMPDEST POP POP POP SWAP2 DUP4 MSTORE POP POP PUSH1 0x2 DUP3 ADD SLOAD PUSH1 0x20 DUP3 ADD MSTORE PUSH1 0x3 SWAP1 SWAP2 ADD SLOAD PUSH1 0x1 PUSH1 0x1 PUSH1 0xA0 SHL SUB AND PUSH1 0x40 SWAP1 SWAP2 ADD MSTORE PUSH1 0x6 SWAP1 SWAP2 ADD SLOAD PUSH1 0xFF AND DUP5 JUMP JUMPDEST PUSH1 0x60 PUSH1 0x1 PUSH1 0x2 SLOAD DUP2 SLOAD DUP2 LT PUSH2 0x1CC3 JUMPI PUSH2 0x1CC3 PUSH2 0x2589 JUMP JUMPDEST SWAP1 PUSH1 0x0 MSTORE PUSH1 0x20 PUSH1 0x0 KECCAK256 SWAP1 PUSH1 0x9 MUL ADD PUSH1 0x1 ADD DUP1 SLOAD DUP1 PUSH1 0x20 MUL PUSH1 0x20 ADD PUSH1 0x40 MLOAD SWAP1 DUP2 ADD PUSH1 0x40 MSTORE DUP1 SWAP3 SWAP2 SWAP1 DUP2 DUP2 MSTORE PUSH1 0x20 ADD PUSH1 0x0 SWAP1 JUMPDEST DUP3 DUP3 LT ISZERO PUSH2 0x1DE5 JUMPI DUP4 DUP3 SWAP1 PUSH1 0x0 MSTORE PUSH1 0x20 PUSH1 0x0 KECCAK256 SWAP1 PUSH1 0x4 MUL ADD PUSH1 0x40 MLOAD DUP1 PUSH1 0x80 ADD PUSH1 0x40 MSTORE SWAP1 DUP2 PUSH1 0x0 DUP3 ADD SLOAD DUP2 MSTORE PUSH1 0x20 ADD PUSH1 0x1 DUP3 ADD DUP1 SLOAD PUSH2 0x1D31 SWAP1 PUSH2 0x2612 JUMP JUMPDEST DUP1 PUSH1 0x1F ADD PUSH1 0x20 DUP1 SWAP2 DIV MUL PUSH1 0x20 ADD PUSH1 0x40 MLOAD SWAP1 DUP2 ADD PUSH1 0x40 MSTORE DUP1 SWAP3 SWAP2 SWAP1 DUP2 DUP2 MSTORE PUSH1 0x20 ADD DUP3 DUP1 SLOAD PUSH2 0x1D5D SWAP1 PUSH2 0x2612 JUMP JUMPDEST DUP1 ISZERO PUSH2 0x1DAA JUMPI DUP1 PUSH1 0x1F LT PUSH2 0x1D7F JUMPI PUSH2 0x100 DUP1 DUP4 SLOAD DIV MUL DUP4 MSTORE SWAP2 PUSH1 0x20 ADD SWAP2 PUSH2 0x1DAA JUMP JUMPDEST DUP3 ADD SWAP2 SWAP1 PUSH1 0x0 MSTORE PUSH1 0x20 PUSH1 0x0 KECCAK256 SWAP1 JUMPDEST DUP2 SLOAD DUP2 MSTORE SWAP1 PUSH1 0x1 ADD SWAP1 PUSH1 0x20 ADD DUP1 DUP4 GT PUSH2 0x1D8D JUMPI DUP3 SWAP1 SUB PUSH1 0x1F AND DUP3 ADD SWAP2 JUMPDEST POP POP POP SWAP2 DUP4 MSTORE POP POP PUSH1 0x2 DUP3 ADD SLOAD PUSH1 0x20 DUP1 DUP4 ADD SWAP2 SWAP1 SWAP2 MSTORE PUSH1 0x3 SWAP1 SWAP3 ADD SLOAD PUSH1 0x1 PUSH1 0x1 PUSH1 0xA0 SHL SUB AND PUSH1 0x40 SWAP1 SWAP2 ADD MSTORE SWAP1 DUP3 MSTORE PUSH1 0x1 SWAP3 SWAP1 SWAP3 ADD SWAP2 ADD PUSH2 0x1CF4 JUMP JUMPDEST POP POP POP POP SWAP1 POP SWAP1 JUMP JUMPDEST PUSH2 0x1DF6 PUSH2 0x2091 JUMP JUMPDEST PUSH1 0x2 PUSH1 0x1 PUSH1 0x2 SLOAD DUP2 SLOAD DUP2 LT PUSH2 0x1E0D JUMPI PUSH2 0x1E0D PUSH2 0x2589 JUMP JUMPDEST PUSH1 0x0 SWAP2 DUP3 MSTORE PUSH1 0x20 SWAP1 SWAP2 KECCAK256 PUSH1 0x9 SWAP1 SWAP2 MUL ADD SLOAD PUSH1 0xFF AND PUSH1 0x5 DUP2 GT ISZERO PUSH2 0x1E32 JUMPI PUSH2 0x1E32 PUSH2 0x2265 JUMP JUMPDEST EQ PUSH2 0x1E94 JUMPI PUSH1 0x40 MLOAD PUSH3 0x461BCD PUSH1 0xE5 SHL DUP2 MSTORE PUSH1 0x20 PUSH1 0x4 DUP3 ADD MSTORE PUSH1 0x2C PUSH1 0x24 DUP3 ADD MSTORE PUSH32 0x54686520737461747573206973206E6F742050726F706F73616C735265676973 PUSH1 0x44 DUP3 ADD MSTORE PUSH12 0x1D1C985D1A5BDB915B991959 PUSH1 0xA2 SHL PUSH1 0x64 DUP3 ADD MSTORE PUSH1 0x84 ADD PUSH2 0x4B2 JUMP JUMPDEST PUSH1 0x0 DUP1 MLOAD PUSH1 0x20 PUSH2 0x28EA DUP4 CODECOPY DUP2 MLOAD SWAP2 MSTORE PUSH1 0x1 PUSH1 0x2 SLOAD DUP2 SLOAD DUP2 LT PUSH2 0x1EB8 JUMPI PUSH2 0x1EB8 PUSH2 0x2589 JUMP JUMPDEST PUSH1 0x0 SWAP2 DUP3 MSTORE PUSH1 0x20 SWAP1 SWAP2 KECCAK256 PUSH1 0x9 SWAP1 SWAP2 MUL ADD SLOAD PUSH1 0x40 MLOAD PUSH2 0x1EDC SWAP2 PUSH1 0xFF AND SWAP1 PUSH1 0x3 SWAP1 PUSH2 0x27AB JUMP JUMPDEST PUSH1 0x40 MLOAD DUP1 SWAP2 SUB SWAP1 LOG1 PUSH1 0x3 PUSH1 0x1 PUSH1 0x2 SLOAD DUP2 SLOAD DUP2 LT PUSH2 0xE5D JUMPI PUSH2 0xE5D PUSH2 0x2589 JUMP JUMPDEST PUSH2 0x1F03 PUSH2 0x2091 JUMP JUMPDEST PUSH2 0x1F0C DUP2 PUSH2 0x2113 JUMP JUMPDEST POP JUMP JUMPDEST PUSH2 0x1F17 PUSH2 0x2091 JUMP JUMPDEST PUSH1 0x1 PUSH1 0x1 PUSH1 0xA0 SHL SUB DUP2 AND PUSH2 0x1F41 JUMPI PUSH1 0x0 PUSH1 0x40 MLOAD PUSH4 0x1E4FBDF7 PUSH1 0xE0 SHL DUP2 MSTORE PUSH1 0x4 ADD PUSH2 0x4B2 SWAP2 SWAP1 PUSH2 0x248F JUMP JUMPDEST PUSH2 0x1F0C DUP2 PUSH2 0x20C3 JUMP JUMPDEST PUSH2 0x1F52 PUSH2 0x2091 JUMP JUMPDEST PUSH1 0x1 PUSH1 0x2 SLOAD DUP2 SLOAD DUP2 LT PUSH2 0x1F67 JUMPI PUSH2 0x1F67 PUSH2 0x2589 JUMP JUMPDEST PUSH1 0x0 SWAP2 DUP3 MSTORE PUSH1 0x20 DUP1 DUP4 KECCAK256 PUSH1 0x1 PUSH1 0x1 PUSH1 0xA0 SHL SUB DUP6 AND DUP5 MSTORE PUSH1 0x7 PUSH1 0x9 SWAP1 SWAP4 MUL ADD SWAP2 SWAP1 SWAP2 ADD SWAP1 MSTORE PUSH1 0x40 SWAP1 KECCAK256 SLOAD PUSH1 0xFF AND ISZERO PUSH2 0x1F9D JUMPI PUSH1 0x0 DUP1 REVERT JUMPDEST PUSH1 0x40 MLOAD DUP1 PUSH1 0x60 ADD PUSH1 0x40 MSTORE DUP1 PUSH1 0x1 ISZERO ISZERO DUP2 MSTORE PUSH1 0x20 ADD PUSH1 0x0 ISZERO ISZERO DUP2 MSTORE PUSH1 0x20 ADD PUSH1 0x0 DUP2 MSTORE POP PUSH1 0x1 PUSH1 0x2 SLOAD DUP2 SLOAD DUP2 LT PUSH2 0x1FD4 JUMPI PUSH2 0x1FD4 PUSH2 0x2589 JUMP JUMPDEST PUSH1 0x0 SWAP2 DUP3 MSTORE PUSH1 0x20 DUP1 DUP4 KECCAK256 PUSH1 0x1 PUSH1 0x1 PUSH1 0xA0 SHL SUB DUP7 AND DUP5 MSTORE PUSH1 0x9 SWAP3 SWAP1 SWAP3 MUL SWAP1 SWAP2 ADD PUSH1 0x7 ADD DUP2 MSTORE PUSH1 0x40 SWAP2 DUP3 SWAP1 KECCAK256 DUP4 MLOAD DUP2 SLOAD SWAP3 DUP6 ADD MLOAD PUSH2 0xFFFF NOT SWAP1 SWAP4 AND SWAP1 ISZERO ISZERO PUSH2 0xFF00 NOT AND OR PUSH2 0x100 SWAP3 ISZERO ISZERO SWAP3 SWAP1 SWAP3 MUL SWAP2 SWAP1 SWAP2 OR DUP2 SSTORE SWAP2 DUP2 ADD MLOAD PUSH1 0x1 SWAP1 SWAP3 ADD SWAP2 SWAP1 SWAP2 SSTORE MLOAD PUSH32 0xB6BE2187D059CC2A55FE29E0E503B566E1E0F8C8780096E185429350ACFFD3DD SWAP1 PUSH2 0x6E6 SWAP1 DUP4 SWAP1 PUSH2 0x248F JUMP JUMPDEST PUSH1 0x0 PUSH1 0x1 PUSH1 0x2 SLOAD DUP2 SLOAD DUP2 LT PUSH2 0x2078 JUMPI PUSH2 0x2078 PUSH2 0x2589 JUMP JUMPDEST PUSH1 0x0 SWAP2 DUP3 MSTORE PUSH1 0x20 SWAP1 SWAP2 KECCAK256 PUSH1 0x9 SWAP1 SWAP2 MUL ADD SLOAD PUSH1 0xFF AND SWAP2 SWAP1 POP JUMP JUMPDEST CALLER PUSH2 0x209A PUSH2 0x169E JUMP JUMPDEST PUSH1 0x1 PUSH1 0x1 PUSH1 0xA0 SHL SUB AND EQ PUSH2 0x14B0 JUMPI CALLER PUSH1 0x40 MLOAD PUSH4 0x118CDAA7 PUSH1 0xE0 SHL DUP2 MSTORE PUSH1 0x4 ADD PUSH2 0x4B2 SWAP2 SWAP1 PUSH2 0x248F JUMP JUMPDEST PUSH1 0x0 DUP1 SLOAD PUSH1 0x1 PUSH1 0x1 PUSH1 0xA0 SHL SUB DUP4 DUP2 AND PUSH1 0x1 PUSH1 0x1 PUSH1 0xA0 SHL SUB NOT DUP4 AND DUP2 OR DUP5 SSTORE PUSH1 0x40 MLOAD SWAP2 SWAP1 SWAP3 AND SWAP3 DUP4 SWAP2 PUSH32 0x8BE0079C531659141344CD1FD0A4F28419497F9722A3DAAFE3B4186F6B6457E0 SWAP2 SWAP1 LOG3 POP POP JUMP JUMPDEST PUSH1 0x1 DUP1 SLOAD PUSH1 0x2 DUP2 SWAP1 SSTORE DUP1 DUP3 ADD DUP1 DUP4 SSTORE PUSH1 0x0 DUP4 DUP2 MSTORE SWAP3 SWAP2 SWAP1 DUP2 LT PUSH2 0x2138 JUMPI PUSH2 0x2138 PUSH2 0x2589 JUMP JUMPDEST PUSH1 0x0 SWAP2 DUP3 MSTORE PUSH1 0x20 DUP1 DUP4 KECCAK256 PUSH1 0x9 SWAP3 SWAP1 SWAP3 MUL SWAP1 SWAP2 ADD DUP1 SLOAD DUP6 ISZERO ISZERO PUSH2 0x100 SWAP1 DUP2 MUL PUSH2 0xFFFF NOT SWAP3 DUP4 AND OR DUP4 SSTORE PUSH1 0x6 DUP4 ADD DUP1 SLOAD PUSH1 0xFF NOT AND PUSH1 0x1 SWAP1 DUP2 OR SWAP1 SWAP2 SSTORE PUSH1 0x40 DUP1 MLOAD PUSH1 0x60 DUP2 ADD DUP3 MSTORE DUP3 DUP2 MSTORE DUP1 DUP8 ADD DUP9 DUP2 MSTORE DUP2 DUP4 ADD DUP10 DUP2 MSTORE CALLER DUP11 MSTORE PUSH1 0x7 DUP9 ADD SWAP1 SWAP9 MSTORE DUP3 DUP10 KECCAK256 SWAP2 MLOAD DUP3 SLOAD SWAP2 MLOAD ISZERO ISZERO SWAP1 SWAP6 MUL PUSH2 0xFF00 NOT SWAP6 ISZERO ISZERO SWAP6 SWAP1 SWAP6 AND SWAP6 AND SWAP5 SWAP1 SWAP5 OR SWAP3 SWAP1 SWAP3 OR DUP4 SSTORE SWAP4 MLOAD SWAP2 SWAP1 SWAP4 ADD SSTORE SWAP1 MLOAD SWAP1 SWAP3 POP PUSH1 0x0 DUP1 MLOAD PUSH1 0x20 PUSH2 0x28EA DUP4 CODECOPY DUP2 MLOAD SWAP2 MSTORE SWAP2 PUSH2 0x21E1 SWAP2 DUP2 SWAP1 PUSH2 0x27AB JUMP JUMPDEST PUSH1 0x40 MLOAD DUP1 SWAP2 SUB SWAP1 LOG1 POP POP JUMP JUMPDEST PUSH1 0x40 DUP1 MLOAD PUSH1 0x80 DUP2 ADD SWAP1 SWAP2 MSTORE DUP1 PUSH1 0x0 DUP2 MSTORE PUSH1 0x0 PUSH1 0x20 DUP3 ADD MSTORE PUSH1 0x60 PUSH1 0x40 DUP3 ADD DUP2 SWAP1 MSTORE ADD PUSH2 0x2216 PUSH2 0x221B JUMP JUMPDEST SWAP1 MSTORE SWAP1 JUMP JUMPDEST PUSH1 0x40 MLOAD DUP1 PUSH1 0x80 ADD PUSH1 0x40 MSTORE DUP1 PUSH1 0x0 DUP2 MSTORE PUSH1 0x20 ADD PUSH1 0x60 DUP2 MSTORE PUSH1 0x20 ADD PUSH1 0x0 DUP2 MSTORE PUSH1 0x20 ADD PUSH1 0x0 PUSH1 0x1 PUSH1 0x1 PUSH1 0xA0 SHL SUB AND DUP2 MSTORE POP SWAP1 JUMP JUMPDEST PUSH1 0x0 PUSH1 0x20 DUP3 DUP5 SUB SLT ISZERO PUSH2 0x225E JUMPI PUSH1 0x0 DUP1 REVERT JUMPDEST POP CALLDATALOAD SWAP2 SWAP1 POP JUMP JUMPDEST PUSH4 0x4E487B71 PUSH1 0xE0 SHL PUSH1 0x0 MSTORE PUSH1 0x21 PUSH1 0x4 MSTORE PUSH1 0x24 PUSH1 0x0 REVERT JUMPDEST PUSH1 0x6 DUP2 LT PUSH2 0x2299 JUMPI PUSH4 0x4E487B71 PUSH1 0xE0 SHL PUSH1 0x0 MSTORE PUSH1 0x21 PUSH1 0x4 MSTORE PUSH1 0x24 PUSH1 0x0 REVERT JUMPDEST SWAP1 MSTORE JUMP JUMPDEST DUP1 MLOAD DUP3 MSTORE PUSH1 0x0 PUSH1 0x20 DUP1 DUP4 ADD MLOAD PUSH1 0x80 DUP3 DUP7 ADD MSTORE DUP1 MLOAD DUP1 PUSH1 0x80 DUP8 ADD MSTORE PUSH1 0x0 JUMPDEST DUP2 DUP2 LT ISZERO PUSH2 0x22D6 JUMPI DUP3 DUP2 ADD DUP5 ADD MLOAD DUP8 DUP3 ADD PUSH1 0xA0 ADD MSTORE DUP4 ADD PUSH2 0x22BA JUMP JUMPDEST POP PUSH1 0x0 PUSH1 0xA0 DUP3 DUP9 ADD ADD MSTORE PUSH1 0x40 DUP6 ADD MLOAD PUSH1 0x40 DUP8 ADD MSTORE PUSH1 0x60 DUP6 ADD MLOAD SWAP3 POP PUSH2 0x2306 PUSH1 0x60 DUP8 ADD DUP5 PUSH1 0x1 PUSH1 0x1 PUSH1 0xA0 SHL SUB AND SWAP1 MSTORE JUMP JUMPDEST PUSH1 0x1F ADD PUSH1 0x1F NOT AND SWAP5 SWAP1 SWAP5 ADD PUSH1 0xA0 ADD SWAP5 SWAP4 POP POP POP POP JUMP JUMPDEST PUSH1 0x0 PUSH1 0x20 DUP1 DUP4 MSTORE PUSH1 0xA0 DUP4 ADD PUSH2 0x2334 DUP3 DUP6 ADD DUP7 MLOAD PUSH2 0x227B JUMP JUMPDEST DUP2 DUP6 ADD MLOAD ISZERO ISZERO PUSH1 0x40 DUP6 ADD MSTORE PUSH1 0x40 DUP6 ADD MLOAD PUSH1 0x80 PUSH1 0x60 DUP7 ADD MSTORE DUP2 DUP2 MLOAD DUP1 DUP5 MSTORE PUSH1 0xC0 DUP8 ADD SWAP2 POP PUSH1 0xC0 DUP2 PUSH1 0x5 SHL DUP9 ADD ADD SWAP4 POP DUP5 DUP4 ADD SWAP3 POP PUSH1 0x0 JUMPDEST DUP2 DUP2 LT ISZERO PUSH2 0x2398 JUMPI PUSH1 0xBF NOT DUP9 DUP7 SUB ADD DUP4 MSTORE PUSH2 0x2386 DUP6 DUP6 MLOAD PUSH2 0x229D JUMP JUMPDEST SWAP5 POP SWAP3 DUP6 ADD SWAP3 SWAP2 DUP6 ADD SWAP2 PUSH1 0x1 ADD PUSH2 0x236A JUMP JUMPDEST POP POP POP POP PUSH1 0x60 DUP6 ADD MLOAD DUP5 DUP3 SUB PUSH1 0x1F NOT ADD PUSH1 0x80 DUP7 ADD MSTORE SWAP2 POP PUSH2 0x23B9 DUP2 DUP4 PUSH2 0x229D JUMP JUMPDEST SWAP6 SWAP5 POP POP POP POP POP JUMP JUMPDEST PUSH1 0x0 DUP1 PUSH1 0x20 DUP4 DUP6 SUB SLT ISZERO PUSH2 0x23D5 JUMPI PUSH1 0x0 DUP1 REVERT JUMPDEST DUP3 CALLDATALOAD PUSH8 0xFFFFFFFFFFFFFFFF DUP1 DUP3 GT ISZERO PUSH2 0x23ED JUMPI PUSH1 0x0 DUP1 REVERT JUMPDEST DUP2 DUP6 ADD SWAP2 POP DUP6 PUSH1 0x1F DUP4 ADD SLT PUSH2 0x2401 JUMPI PUSH1 0x0 DUP1 REVERT JUMPDEST DUP2 CALLDATALOAD DUP2 DUP2 GT ISZERO PUSH2 0x2410 JUMPI PUSH1 0x0 DUP1 REVERT JUMPDEST DUP7 PUSH1 0x20 DUP3 DUP6 ADD ADD GT ISZERO PUSH2 0x2422 JUMPI PUSH1 0x0 DUP1 REVERT JUMPDEST PUSH1 0x20 SWAP3 SWAP1 SWAP3 ADD SWAP7 SWAP2 SWAP6 POP SWAP1 SWAP4 POP POP POP POP JUMP JUMPDEST PUSH1 0x60 DUP2 ADD PUSH2 0x2442 DUP3 DUP7 PUSH2 0x227B JUMP JUMPDEST DUP4 ISZERO ISZERO PUSH1 0x20 DUP4 ADD MSTORE PUSH2 0x2457 PUSH1 0x40 DUP4 ADD DUP5 PUSH2 0x227B JUMP JUMPDEST SWAP5 SWAP4 POP POP POP POP JUMP JUMPDEST PUSH1 0x0 PUSH1 0x20 DUP3 DUP5 SUB SLT ISZERO PUSH2 0x2471 JUMPI PUSH1 0x0 DUP1 REVERT JUMPDEST DUP2 CALLDATALOAD PUSH1 0x1 PUSH1 0x1 PUSH1 0xA0 SHL SUB DUP2 AND DUP2 EQ PUSH2 0x2488 JUMPI PUSH1 0x0 DUP1 REVERT JUMPDEST SWAP4 SWAP3 POP POP POP JUMP JUMPDEST PUSH1 0x1 PUSH1 0x1 PUSH1 0xA0 SHL SUB SWAP2 SWAP1 SWAP2 AND DUP2 MSTORE PUSH1 0x20 ADD SWAP1 JUMP JUMPDEST PUSH1 0x20 DUP2 MSTORE PUSH1 0x0 PUSH2 0x2488 PUSH1 0x20 DUP4 ADD DUP5 PUSH2 0x229D JUMP JUMPDEST PUSH1 0x20 DUP2 ADD PUSH2 0x24C4 DUP3 DUP5 PUSH2 0x227B JUMP JUMPDEST SWAP3 SWAP2 POP POP JUMP JUMPDEST PUSH2 0x24D4 DUP2 DUP7 PUSH2 0x227B JUMP JUMPDEST DUP4 ISZERO ISZERO PUSH1 0x20 DUP3 ADD MSTORE PUSH1 0x80 PUSH1 0x40 DUP3 ADD MSTORE PUSH1 0x0 PUSH2 0x24F2 PUSH1 0x80 DUP4 ADD DUP6 PUSH2 0x229D JUMP JUMPDEST SWAP1 POP DUP3 ISZERO ISZERO PUSH1 0x60 DUP4 ADD MSTORE SWAP6 SWAP5 POP POP POP POP POP JUMP JUMPDEST PUSH1 0x0 PUSH1 0x20 DUP1 DUP4 ADD DUP2 DUP5 MSTORE DUP1 DUP6 MLOAD DUP1 DUP4 MSTORE PUSH1 0x40 DUP7 ADD SWAP2 POP PUSH1 0x40 DUP2 PUSH1 0x5 SHL DUP8 ADD ADD SWAP3 POP DUP4 DUP8 ADD PUSH1 0x0 JUMPDEST DUP3 DUP2 LT ISZERO PUSH2 0x255A JUMPI PUSH1 0x3F NOT DUP9 DUP7 SUB ADD DUP5 MSTORE PUSH2 0x2548 DUP6 DUP4 MLOAD PUSH2 0x229D JUMP JUMPDEST SWAP5 POP SWAP3 DUP6 ADD SWAP3 SWAP1 DUP6 ADD SWAP1 PUSH1 0x1 ADD PUSH2 0x252C JUMP JUMPDEST POP SWAP3 SWAP8 SWAP7 POP POP POP POP POP POP POP JUMP JUMPDEST PUSH1 0x0 PUSH1 0x20 DUP3 DUP5 SUB SLT ISZERO PUSH2 0x2579 JUMPI PUSH1 0x0 DUP1 REVERT JUMPDEST DUP2 CALLDATALOAD DUP1 ISZERO ISZERO DUP2 EQ PUSH2 0x2488 JUMPI PUSH1 0x0 DUP1 REVERT JUMPDEST PUSH4 0x4E487B71 PUSH1 0xE0 SHL PUSH1 0x0 MSTORE PUSH1 0x32 PUSH1 0x4 MSTORE PUSH1 0x24 PUSH1 0x0 REVERT JUMPDEST PUSH1 0x20 DUP1 DUP3 MSTORE PUSH1 0x1E SWAP1 DUP3 ADD MSTORE PUSH32 0x4E6F742077686974656C6973746564206F7220626C61636B6C69737465640000 PUSH1 0x40 DUP3 ADD MSTORE PUSH1 0x60 ADD SWAP1 JUMP JUMPDEST PUSH4 0x4E487B71 PUSH1 0xE0 SHL PUSH1 0x0 MSTORE PUSH1 0x11 PUSH1 0x4 MSTORE PUSH1 0x24 PUSH1 0x0 REVERT JUMPDEST DUP2 DUP2 SUB DUP2 DUP2 GT ISZERO PUSH2 0x24C4 JUMPI PUSH2 0x24C4 PUSH2 0x25D6 JUMP JUMPDEST DUP1 DUP3 ADD DUP1 DUP3 GT ISZERO PUSH2 0x24C4 JUMPI PUSH2 0x24C4 PUSH2 0x25D6 JUMP JUMPDEST PUSH1 0x1 DUP2 DUP2 SHR SWAP1 DUP3 AND DUP1 PUSH2 0x2626 JUMPI PUSH1 0x7F DUP3 AND SWAP2 POP JUMPDEST PUSH1 0x20 DUP3 LT DUP2 SUB PUSH2 0x1244 JUMPI PUSH4 0x4E487B71 PUSH1 0xE0 SHL PUSH1 0x0 MSTORE PUSH1 0x22 PUSH1 0x4 MSTORE PUSH1 0x24 PUSH1 0x0 REVERT JUMPDEST PUSH4 0x4E487B71 PUSH1 0xE0 SHL PUSH1 0x0 MSTORE PUSH1 0x41 PUSH1 0x4 MSTORE PUSH1 0x24 PUSH1 0x0 REVERT JUMPDEST PUSH1 0x1F DUP3 GT ISZERO PUSH2 0x26A6 JUMPI PUSH1 0x0 DUP2 DUP2 MSTORE PUSH1 0x20 DUP2 KECCAK256 PUSH1 0x1F DUP6 ADD PUSH1 0x5 SHR DUP2 ADD PUSH1 0x20 DUP7 LT ISZERO PUSH2 0x2683 JUMPI POP DUP1 JUMPDEST PUSH1 0x1F DUP6 ADD PUSH1 0x5 SHR DUP3 ADD SWAP2 POP JUMPDEST DUP2 DUP2 LT ISZERO PUSH2 0x26A2 JUMPI DUP3 DUP2 SSTORE PUSH1 0x1 ADD PUSH2 0x268F JUMP JUMPDEST POP POP POP JUMPDEST POP POP POP JUMP JUMPDEST PUSH1 0x0 NOT PUSH1 0x3 DUP4 SWAP1 SHL SHR NOT AND PUSH1 0x1 SWAP2 SWAP1 SWAP2 SHL OR SWAP1 JUMP JUMPDEST DUP2 MLOAD PUSH8 0xFFFFFFFFFFFFFFFF DUP2 GT ISZERO PUSH2 0x26DA JUMPI PUSH2 0x26DA PUSH2 0x2646 JUMP JUMPDEST PUSH2 0x26EE DUP2 PUSH2 0x26E8 DUP5 SLOAD PUSH2 0x2612 JUMP JUMPDEST DUP5 PUSH2 0x265C JUMP JUMPDEST PUSH1 0x20 DUP1 PUSH1 0x1F DUP4 GT PUSH1 0x1 DUP2 EQ PUSH2 0x271D JUMPI PUSH1 0x0 DUP5 ISZERO PUSH2 0x270B JUMPI POP DUP6 DUP4 ADD MLOAD JUMPDEST PUSH2 0x2715 DUP6 DUP3 PUSH2 0x26AB JUMP JUMPDEST DUP7 SSTORE POP PUSH2 0x26A2 JUMP JUMPDEST PUSH1 0x0 DUP6 DUP2 MSTORE PUSH1 0x20 DUP2 KECCAK256 PUSH1 0x1F NOT DUP7 AND SWAP2 JUMPDEST DUP3 DUP2 LT ISZERO PUSH2 0x274C JUMPI DUP9 DUP7 ADD MLOAD DUP3 SSTORE SWAP5 DUP5 ADD SWAP5 PUSH1 0x1 SWAP1 SWAP2 ADD SWAP1 DUP5 ADD PUSH2 0x272D JUMP JUMPDEST POP DUP6 DUP3 LT ISZERO PUSH2 0x276A JUMPI DUP8 DUP6 ADD MLOAD PUSH1 0x0 NOT PUSH1 0x3 DUP9 SWAP1 SHL PUSH1 0xF8 AND SHR NOT AND DUP2 SSTORE JUMPDEST POP POP POP POP POP PUSH1 0x1 SWAP1 DUP2 SHL ADD SWAP1 SSTORE POP JUMP JUMPDEST PUSH1 0x20 DUP1 DUP3 MSTORE PUSH1 0x17 SWAP1 DUP3 ADD MSTORE PUSH23 0x151A19481CDD185D1D5CC81A5CC81B9BDD081D985B1A59 PUSH1 0x4A SHL PUSH1 0x40 DUP3 ADD MSTORE PUSH1 0x60 ADD SWAP1 JUMP JUMPDEST PUSH1 0x40 DUP2 ADD PUSH2 0x27B9 DUP3 DUP6 PUSH2 0x227B JUMP JUMPDEST PUSH2 0x2488 PUSH1 0x20 DUP4 ADD DUP5 PUSH2 0x227B JUMP JUMPDEST PUSH1 0x20 DUP1 DUP3 MSTORE PUSH1 0x1B SWAP1 DUP3 ADD MSTORE PUSH27 0x53657373696F6E20696E646578206F7574206F6620626F756E6473 PUSH1 0x28 SHL PUSH1 0x40 DUP3 ADD MSTORE PUSH1 0x60 ADD SWAP1 JUMP JUMPDEST PUSH1 0x0 PUSH1 0x1 DUP3 ADD PUSH2 0x280D JUMPI PUSH2 0x280D PUSH2 0x25D6 JUMP JUMPDEST POP PUSH1 0x1 ADD SWAP1 JUMP JUMPDEST DUP2 DUP2 SUB PUSH2 0x281F JUMPI POP POP JUMP JUMPDEST PUSH2 0x2829 DUP3 SLOAD PUSH2 0x2612 JUMP JUMPDEST PUSH8 0xFFFFFFFFFFFFFFFF DUP2 GT ISZERO PUSH2 0x2841 JUMPI PUSH2 0x2841 PUSH2 0x2646 JUMP JUMPDEST PUSH2 0x284F DUP2 PUSH2 0x26E8 DUP5 SLOAD PUSH2 0x2612 JUMP JUMPDEST PUSH1 0x0 PUSH1 0x1F DUP3 GT PUSH1 0x1 DUP2 EQ PUSH2 0x287D JUMPI PUSH1 0x0 DUP4 ISZERO PUSH2 0x286B JUMPI POP DUP5 DUP3 ADD SLOAD JUMPDEST PUSH2 0x2875 DUP5 DUP3 PUSH2 0x26AB JUMP JUMPDEST DUP6 SSTORE POP PUSH2 0x28E2 JUMP JUMPDEST PUSH1 0x0 DUP6 DUP2 MSTORE PUSH1 0x20 SWAP1 KECCAK256 PUSH1 0x1F NOT DUP5 AND SWAP1 PUSH1 0x0 DUP7 DUP2 MSTORE PUSH1 0x20 SWAP1 KECCAK256 DUP5 JUMPDEST DUP4 DUP2 LT ISZERO PUSH2 0x28B7 JUMPI DUP3 DUP7 ADD SLOAD DUP3 SSTORE PUSH1 0x1 SWAP6 DUP7 ADD SWAP6 SWAP1 SWAP2 ADD SWAP1 PUSH1 0x20 ADD PUSH2 0x2897 JUMP JUMPDEST POP DUP6 DUP4 LT ISZERO PUSH2 0x28D5 JUMPI DUP2 DUP6 ADD SLOAD PUSH1 0x0 NOT PUSH1 0x3 DUP9 SWAP1 SHL PUSH1 0xF8 AND SHR NOT AND DUP2 SSTORE JUMPDEST POP POP POP PUSH1 0x1 DUP4 PUSH1 0x1 SHL ADD DUP5 SSTORE JUMPDEST POP POP POP POP POP JUMP INVALID EXP SWAP8 LOG4 0xEE GASLIMIT PUSH22 0x1E2ABF3E4FC8946939630B11B371EA8AE39CCDC3056E SWAP9 CREATE2 0xCC EXTCODEHASH LOG2 PUSH5 0x6970667358 0x22 SLT KECCAK256 PUSH8 0x67284934BFFFD8B5 0xEF DUP3 0xE4 DUP8 NOT 0xA8 0xBB MSIZE NOT 0xD1 CALLVALUE PUSH0 BALANCE 0x2F PUSH8 0x8485FE92D94B33D6 PUSH5 0x736F6C6343 STOP ADDMOD EQ STOP CALLER "},"methodIdentifiers":{"addProposal(string)":"2fdae3c5","addVote(uint256)":"0383badc","addVoter(address)":"f4ab9adf","blacklistVoter(address)":"75dee998","closeProposal()":"48f85451","closeRegisteringVoters()":"3bdfb5ea","closeVote()":"329d3346","countVotes()":"b647990a","getCurrentSession()":"1401795f","getCurrentStatus(uint256)":"a0aa13c6","getIndexSession()":"bcbea431","getSession(uint256)":"402ff0db","getSessionProposal()":"ca64c205","getSessionStatus()":"f8a013f8","getWinner()":"8e7ea5b2","lesSession(uint256)":"b74ca78d","openProposalRegistration()":"b2c63487","openVote()":"d107d8c2","owner()":"8da5cb5b","removeVoter(address)":"86c1ff68","renounceOwnership()":"715018a6","sessionIndex()":"2c969609","startSession(bool)":"e3473084","transferOwnership(address)":"f2fde38b"}}}}}