{
  "_format": "hh-sol-artifact-1",
  "contractName": "Voting",
  "sourceName": "contracts/Voting.sol",
  "abi": [
    {
      "inputs": [],
      "stateMutability": "nonpayable",
      "type": "constructor"
    },
    {
      "inputs": [
        {
          "internalType": "address",
          "name": "owner",
          "type": "address"
        }
      ],
      "name": "OwnableInvalidOwner",
      "type": "error"
    },
    {
      "inputs": [
        {
          "internalType": "address",
          "name": "account",
          "type": "address"
        }
      ],
      "name": "OwnableUnauthorizedAccount",
      "type": "error"
    },
    {
      "anonymous": false,
      "inputs": [
        {
          "indexed": true,
          "internalType": "address",
          "name": "previousOwner",
          "type": "address"
        },
        {
          "indexed": true,
          "internalType": "address",
          "name": "newOwner",
          "type": "address"
        }
      ],
      "name": "OwnershipTransferred",
      "type": "event"
    },
    {
      "anonymous": false,
      "inputs": [
        {
          "indexed": false,
          "internalType": "uint256",
          "name": "proposalId",
          "type": "uint256"
        }
      ],
      "name": "ProposalRegistered",
      "type": "event"
    },
    {
      "anonymous": false,
      "inputs": [
        {
          "indexed": false,
          "internalType": "address",
          "name": "voter",
          "type": "address"
        },
        {
          "indexed": false,
          "internalType": "uint256",
          "name": "proposalId",
          "type": "uint256"
        }
      ],
      "name": "Voted",
      "type": "event"
    },
    {
      "anonymous": false,
      "inputs": [
        {
          "indexed": false,
          "internalType": "address",
          "name": "voterAddress",
          "type": "address"
        }
      ],
      "name": "VoterBlacklisted",
      "type": "event"
    },
    {
      "anonymous": false,
      "inputs": [
        {
          "indexed": false,
          "internalType": "address",
          "name": "voterAddress",
          "type": "address"
        }
      ],
      "name": "VoterRegistered",
      "type": "event"
    },
    {
      "anonymous": false,
      "inputs": [
        {
          "indexed": false,
          "internalType": "address",
          "name": "voterAddress",
          "type": "address"
        }
      ],
      "name": "VoterUnRegistered",
      "type": "event"
    },
    {
      "anonymous": false,
      "inputs": [
        {
          "indexed": false,
          "internalType": "enum Voting.WorkflowStatus",
          "name": "previousStatus",
          "type": "uint8"
        },
        {
          "indexed": false,
          "internalType": "enum Voting.WorkflowStatus",
          "name": "newStatus",
          "type": "uint8"
        }
      ],
      "name": "WorkflowStatusChange",
      "type": "event"
    },
    {
      "inputs": [
        {
          "internalType": "string",
          "name": "_description",
          "type": "string"
        }
      ],
      "name": "addProposal",
      "outputs": [
        {
          "internalType": "enum Voting.WorkflowStatus",
          "name": "",
          "type": "uint8"
        },
        {
          "internalType": "bool",
          "name": "",
          "type": "bool"
        },
        {
          "internalType": "enum Voting.WorkflowStatus",
          "name": "",
          "type": "uint8"
        }
      ],
      "stateMutability": "nonpayable",
      "type": "function"
    },
    {
      "inputs": [
        {
          "internalType": "uint256",
          "name": "_proposalId",
          "type": "uint256"
        }
      ],
      "name": "addVote",
      "outputs": [],
      "stateMutability": "nonpayable",
      "type": "function"
    },
    {
      "inputs": [
        {
          "internalType": "address",
          "name": "_address",
          "type": "address"
        }
      ],
      "name": "addVoter",
      "outputs": [],
      "stateMutability": "nonpayable",
      "type": "function"
    },
    {
      "inputs": [
        {
          "internalType": "address",
          "name": "_address",
          "type": "address"
        }
      ],
      "name": "blacklistVoter",
      "outputs": [],
      "stateMutability": "nonpayable",
      "type": "function"
    },
    {
      "inputs": [],
      "name": "closeProposal",
      "outputs": [],
      "stateMutability": "nonpayable",
      "type": "function"
    },
    {
      "inputs": [],
      "name": "closeRegisteringVoters",
      "outputs": [],
      "stateMutability": "nonpayable",
      "type": "function"
    },
    {
      "inputs": [],
      "name": "closeVote",
      "outputs": [],
      "stateMutability": "nonpayable",
      "type": "function"
    },
    {
      "inputs": [],
      "name": "countVotes",
      "outputs": [],
      "stateMutability": "nonpayable",
      "type": "function"
    },
    {
      "inputs": [],
      "name": "getCurrentSession",
      "outputs": [
        {
          "components": [
            {
              "internalType": "enum Voting.WorkflowStatus",
              "name": "status",
              "type": "uint8"
            },
            {
              "internalType": "bool",
              "name": "isPublicProposal",
              "type": "bool"
            },
            {
              "components": [
                {
                  "internalType": "uint256",
                  "name": "proposalId",
                  "type": "uint256"
                },
                {
                  "internalType": "string",
                  "name": "description",
                  "type": "string"
                },
                {
                  "internalType": "uint256",
                  "name": "voteCount",
                  "type": "uint256"
                },
                {
                  "internalType": "address",
                  "name": "proposerPar",
                  "type": "address"
                }
              ],
              "internalType": "struct Voting.Proposal[]",
              "name": "lesProposition",
              "type": "tuple[]"
            },
            {
              "components": [
                {
                  "internalType": "uint256",
                  "name": "proposalId",
                  "type": "uint256"
                },
                {
                  "internalType": "string",
                  "name": "description",
                  "type": "string"
                },
                {
                  "internalType": "uint256",
                  "name": "voteCount",
                  "type": "uint256"
                },
                {
                  "internalType": "address",
                  "name": "proposerPar",
                  "type": "address"
                }
              ],
              "internalType": "struct Voting.Proposal",
              "name": "winner",
              "type": "tuple"
            }
          ],
          "internalType": "struct Voting.SessionFormat",
          "name": "",
          "type": "tuple"
        }
      ],
      "stateMutability": "view",
      "type": "function"
    },
    {
      "inputs": [
        {
          "internalType": "uint256",
          "name": "Index",
          "type": "uint256"
        }
      ],
      "name": "getCurrentStatus",
      "outputs": [
        {
          "internalType": "enum Voting.WorkflowStatus",
          "name": "",
          "type": "uint8"
        }
      ],
      "stateMutability": "view",
      "type": "function"
    },
    {
      "inputs": [],
      "name": "getIndexSession",
      "outputs": [
        {
          "internalType": "uint256",
          "name": "",
          "type": "uint256"
        }
      ],
      "stateMutability": "view",
      "type": "function"
    },
    {
      "inputs": [
        {
          "internalType": "uint256",
          "name": "index",
          "type": "uint256"
        }
      ],
      "name": "getSession",
      "outputs": [
        {
          "components": [
            {
              "internalType": "enum Voting.WorkflowStatus",
              "name": "status",
              "type": "uint8"
            },
            {
              "internalType": "bool",
              "name": "isPublicProposal",
              "type": "bool"
            },
            {
              "components": [
                {
                  "internalType": "uint256",
                  "name": "proposalId",
                  "type": "uint256"
                },
                {
                  "internalType": "string",
                  "name": "description",
                  "type": "string"
                },
                {
                  "internalType": "uint256",
                  "name": "voteCount",
                  "type": "uint256"
                },
                {
                  "internalType": "address",
                  "name": "proposerPar",
                  "type": "address"
                }
              ],
              "internalType": "struct Voting.Proposal[]",
              "name": "lesProposition",
              "type": "tuple[]"
            },
            {
              "components": [
                {
                  "internalType": "uint256",
                  "name": "proposalId",
                  "type": "uint256"
                },
                {
                  "internalType": "string",
                  "name": "description",
                  "type": "string"
                },
                {
                  "internalType": "uint256",
                  "name": "voteCount",
                  "type": "uint256"
                },
                {
                  "internalType": "address",
                  "name": "proposerPar",
                  "type": "address"
                }
              ],
              "internalType": "struct Voting.Proposal",
              "name": "winner",
              "type": "tuple"
            }
          ],
          "internalType": "struct Voting.SessionFormat",
          "name": "",
          "type": "tuple"
        }
      ],
      "stateMutability": "view",
      "type": "function"
    },
    {
      "inputs": [],
      "name": "getSessionProposal",
      "outputs": [
        {
          "components": [
            {
              "internalType": "uint256",
              "name": "proposalId",
              "type": "uint256"
            },
            {
              "internalType": "string",
              "name": "description",
              "type": "string"
            },
            {
              "internalType": "uint256",
              "name": "voteCount",
              "type": "uint256"
            },
            {
              "internalType": "address",
              "name": "proposerPar",
              "type": "address"
            }
          ],
          "internalType": "struct Voting.Proposal[]",
          "name": "",
          "type": "tuple[]"
        }
      ],
      "stateMutability": "view",
      "type": "function"
    },
    {
      "inputs": [],
      "name": "getSessionStatus",
      "outputs": [
        {
          "internalType": "enum Voting.WorkflowStatus",
          "name": "",
          "type": "uint8"
        }
      ],
      "stateMutability": "view",
      "type": "function"
    },
    {
      "inputs": [],
      "name": "getWinner",
      "outputs": [
        {
          "components": [
            {
              "internalType": "uint256",
              "name": "proposalId",
              "type": "uint256"
            },
            {
              "internalType": "string",
              "name": "description",
              "type": "string"
            },
            {
              "internalType": "uint256",
              "name": "voteCount",
              "type": "uint256"
            },
            {
              "internalType": "address",
              "name": "proposerPar",
              "type": "address"
            }
          ],
          "internalType": "struct Voting.Proposal",
          "name": "",
          "type": "tuple"
        }
      ],
      "stateMutability": "view",
      "type": "function"
    },
    {
      "inputs": [
        {
          "internalType": "uint256",
          "name": "",
          "type": "uint256"
        }
      ],
      "name": "lesSession",
      "outputs": [
        {
          "internalType": "enum Voting.WorkflowStatus",
          "name": "status",
          "type": "uint8"
        },
        {
          "internalType": "bool",
          "name": "isPublicProposal",
          "type": "bool"
        },
        {
          "components": [
            {
              "internalType": "uint256",
              "name": "proposalId",
              "type": "uint256"
            },
            {
              "internalType": "string",
              "name": "description",
              "type": "string"
            },
            {
              "internalType": "uint256",
              "name": "voteCount",
              "type": "uint256"
            },
            {
              "internalType": "address",
              "name": "proposerPar",
              "type": "address"
            }
          ],
          "internalType": "struct Voting.Proposal",
          "name": "winner",
          "type": "tuple"
        },
        {
          "internalType": "bool",
          "name": "isValid",
          "type": "bool"
        }
      ],
      "stateMutability": "view",
      "type": "function"
    },
    {
      "inputs": [],
      "name": "openProposalRegistration",
      "outputs": [],
      "stateMutability": "nonpayable",
      "type": "function"
    },
    {
      "inputs": [],
      "name": "openVote",
      "outputs": [],
      "stateMutability": "nonpayable",
      "type": "function"
    },
    {
      "inputs": [],
      "name": "owner",
      "outputs": [
        {
          "internalType": "address",
          "name": "",
          "type": "address"
        }
      ],
      "stateMutability": "view",
      "type": "function"
    },
    {
      "inputs": [
        {
          "internalType": "address",
          "name": "_address",
          "type": "address"
        }
      ],
      "name": "removeVoter",
      "outputs": [],
      "stateMutability": "nonpayable",
      "type": "function"
    },
    {
      "inputs": [],
      "name": "renounceOwnership",
      "outputs": [],
      "stateMutability": "nonpayable",
      "type": "function"
    },
    {
      "inputs": [],
      "name": "sessionIndex",
      "outputs": [
        {
          "internalType": "uint256",
          "name": "",
          "type": "uint256"
        }
      ],
      "stateMutability": "view",
      "type": "function"
    },
    {
      "inputs": [
        {
          "internalType": "bool",
          "name": "_publicProposal",
          "type": "bool"
        }
      ],
      "name": "startSession",
      "outputs": [],
      "stateMutability": "payable",
      "type": "function"
    },
    {
      "inputs": [
        {
          "internalType": "address",
          "name": "newOwner",
          "type": "address"
        }
      ],
      "name": "transferOwnership",
      "outputs": [],
      "stateMutability": "nonpayable",
      "type": "function"
    }
  ],
  "bytecode": "0x608060405234801561001057600080fd5b50338061003757604051631e4fbdf760e01b81526000600482015260240160405180910390fd5b61004081610046565b50610096565b600080546001600160a01b038381166001600160a01b0319831681178455604051919092169283917f8be0079c531659141344cd1fd0a4f28419497f9722a3daafe3b4186f6b6457e09190a35050565b61293f80620000a66000396000f3fe60806040526004361061012b5760003560e01c80638e7ea5b2116100a65780638e7ea5b2146102a6578063a0aa13c6146102c8578063b2c63487146102f5578063b647990a1461030a578063b74ca78d1461031f578063bcbea4311461034f578063ca64c20514610364578063d107d8c214610386578063e34730841461039b578063f2fde38b146103ae578063f4ab9adf146103ce578063f8a013f8146103ee57600080fd5b80630383badc146101305780631401795f146101525780632c9696091461017d5780632fdae3c5146101a1578063329d3346146101d05780633bdfb5ea146101e5578063402ff0db146101fa57806348f854511461021a578063715018a61461022f57806375dee9981461024457806386c1ff68146102645780638da5cb5b14610284575b600080fd5b34801561013c57600080fd5b5061015061014b36600461224c565b610403565b005b34801561015e57600080fd5b506101676106f1565b604051610174919061231c565b60405180910390f35b34801561018957600080fd5b5061019360025481565b604051908152602001610174565b3480156101ad57600080fd5b506101c16101bc3660046123c2565b6109b0565b60405161017493929190612434565b3480156101dc57600080fd5b50610150610d95565b3480156101f157600080fd5b50610150610e8e565b34801561020657600080fd5b5061016761021536600461224c565b610efc565b34801561022657600080fd5b5061015061124a565b34801561023b57600080fd5b5061015061149e565b34801561025057600080fd5b5061015061025f36600461245f565b6114b2565b34801561027057600080fd5b5061015061027f36600461245f565b611588565b34801561029057600080fd5b5061029961169e565b604051610174919061248f565b3480156102b257600080fd5b506102bb6116ad565b60405161017491906124a3565b3480156102d457600080fd5b506102e86102e336600461224c565b6117a5565b60405161017491906124b6565b34801561030157600080fd5b506101506117f6565b34801561031657600080fd5b5061015061189d565b34801561032b57600080fd5b5061033f61033a36600461224c565b611ba3565b60405161017494939291906124ca565b34801561035b57600080fd5b50600254610193565b34801561037057600080fd5b50610379611cac565b6040516101749190612505565b34801561039257600080fd5b50610150611dee565b6101506103a9366004612567565b611efb565b3480156103ba57600080fd5b506101506103c936600461245f565b611f0f565b3480156103da57600080fd5b506101506103e936600461245f565b611f4a565b3480156103fa57600080fd5b506102e8612061565b60016002548154811061041857610418612589565b600091825260208083203384526007600990930201919091019052604090205460ff16801561047c575060016002548154811061045757610457612589565b600091825260208083203384526008600990930201919091019052604090205460ff16155b8061049657503361048b61169e565b6001600160a01b0316145b6104bb5760405162461bcd60e51b81526004016104b29061259f565b60405180910390fd5b6001600254815481106104d0576104d0612589565b6000918252602080832033845260099290920290910160070190526040902054610100900460ff1615801561053e5750600360016002548154811061051757610517612589565b600091825260209091206009909102015460ff16600581111561053c5761053c612265565b145b61054757600080fd5b600081118015610580575060016002548154811061056757610567612589565b9060005260206000209060090201600101805490508111155b6105c25760405162461bcd60e51b8152602060048201526013602482015272125b9d985b1a59081c1c9bdc1bdcd85b081251606a1b60448201526064016104b2565b600180600254815481106105d8576105d8612589565b90600052602060002090600902016001016001836105f691906125ec565b8154811061060657610606612589565b9060005260206000209060040201600201600082825461062691906125ff565b925050819055506001806002548154811061064357610643612589565b6000918252602080832033845260076009909302019190910190526040902080549115156101000261ff001990921691909117905560025460018054839290811061069057610690612589565b60009182526020808320338085526009939093020160070181526040928390206001019390935581519081529182018390527f4d99b957a2bc29a30ebd96a7be8e68fe50a3c701db28a91436490b7d53870ca491015b60405180910390a150565b6106f96121ed565b604051806080016040528060016002548154811061071957610719612589565b600091825260209091206009909102015460ff16600581111561073e5761073e612265565b815260200160016002548154811061075857610758612589565b906000526020600020906009020160000160019054906101000a900460ff161515815260200160016002548154811061079357610793612589565b9060005260206000209060090201600101805480602002602001604051908101604052809291908181526020016000905b828210156108b557838290600052602060002090600402016040518060800160405290816000820154815260200160018201805461080190612612565b80601f016020809104026020016040519081016040528092919081815260200182805461082d90612612565b801561087a5780601f1061084f5761010080835404028352916020019161087a565b820191906000526020600020905b81548152906001019060200180831161085d57829003601f168201915b505050918352505060028201546020808301919091526003909201546001600160a01b031660409091015290825260019290920191016107c4565b5050505081526020016001600254815481106108d3576108d3612589565b90600052602060002090600902016002016040518060800160405290816000820154815260200160018201805461090990612612565b80601f016020809104026020016040519081016040528092919081815260200182805461093590612612565b80156109825780601f1061095757610100808354040283529160200191610982565b820191906000526020600020905b81548152906001019060200180831161096557829003601f168201915b5050509183525050600282015460208201526003909101546001600160a01b03166040909101529052919050565b60008060006001600254815481106109ca576109ca612589565b600091825260208083203384526007600990930201919091019052604090205460ff168015610a2e5750600160025481548110610a0957610a09612589565b600091825260208083203384526008600990930201919091019052604090205460ff16155b80610a48575033610a3d61169e565b6001600160a01b0316145b610a645760405162461bcd60e51b81526004016104b29061259f565b600160025481548110610a7957610a79612589565b6000918252602090912060099091020154610100900460ff1680610aac575033610aa161169e565b6001600160a01b0316145b610af85760405162461bcd60e51b815260206004820152601e60248201527f43616e6e6f742070726f706f736520696e20746869732073657373696f6e000060448201526064016104b2565b60018060025481548110610b0e57610b0e612589565b600091825260209091206009909102015460ff166005811115610b3357610b33612265565b14610b945760405162461bcd60e51b815260206004820152602b60248201527f54686520737461747573206973202050726f706f73616c73526567697374726160448201526a1d1a5bdb94dd185c9d195960aa1b60648201526084016104b2565b6000600160025481548110610bab57610bab612589565b906000526020600020906009020160010180549050905060006040518060800160405280836001610bdc91906125ff565b815260200188888080601f016020809104026020016040519081016040528093929190818152602001838380828437600092018290525093855250505060208201523360409091015260025460018054929350918110610c3e57610c3e612589565b600091825260208083206001600990930201820180548084018255908452928190208451600490940201928355830151839291820190610c7e90826126c0565b506040820151816002015560608201518160030160006101000a8154816001600160a01b0302191690836001600160a01b0316021790555050507f92e393e9b54e2f801d3ea4beb0c5e71a21cc34a5d34b77d0fb8a3aa1650dc18f60018060025481548110610cef57610cef612589565b906000526020600020906009020160010180549050610d0e91906125ec565b60405190815260200160405180910390a1600160025481548110610d3457610d34612589565b600091825260209091206009909102015460ff1660018060025481548110610d5e57610d5e612589565b600091825260209091206009909102015460ff166005811115610d8357610d83612265565b14600194509450945050509250925092565b610d9d612091565b6003600160025481548110610db457610db4612589565b600091825260209091206009909102015460ff166005811115610dd957610dd9612265565b14610df65760405162461bcd60e51b81526004016104b29061277a565b6000805160206128ea833981519152600160025481548110610e1a57610e1a612589565b6000918252602090912060099091020154604051610e3e9160ff16906004906127ab565b60405180910390a16004600160025481548110610e5d57610e5d612589565b60009182526020909120600990910201805460ff19166001836005811115610e8757610e87612265565b0217905550565b610e96612091565b6000805160206128ea833981519152600160025481548110610eba57610eba612589565b6000918252602090912060099091020154604051610ede9160ff16906001906127ab565b60405180910390a160018060025481548110610e5d57610e5d612589565b610f046121ed565b60015482908110610f275760405162461bcd60e51b81526004016104b2906127c6565b60018181548110610f3a57610f3a612589565b600091825260209091206006600990920201015460ff16610f975760405162461bcd60e51b8152602060048201526017602482015276139bc81cd95cdcda5bdb8b08185b1c9958591e481cd95d604a1b60448201526064016104b2565b604051806080016040528060018581548110610fb557610fb5612589565b600091825260209091206009909102015460ff166005811115610fda57610fda612265565b815260200160018581548110610ff257610ff2612589565b906000526020600020906009020160000160019054906101000a900460ff16151581526020016001858154811061102b5761102b612589565b9060005260206000209060090201600101805480602002602001604051908101604052809291908181526020016000905b8282101561114d57838290600052602060002090600402016040518060800160405290816000820154815260200160018201805461109990612612565b80601f01602080910402602001604051908101604052809291908181526020018280546110c590612612565b80156111125780601f106110e757610100808354040283529160200191611112565b820191906000526020600020905b8154815290600101906020018083116110f557829003601f168201915b505050918352505060028201546020808301919091526003909201546001600160a01b0316604090910152908252600192909201910161105c565b5050505081526020016001858154811061116957611169612589565b90600052602060002090600902016002016040518060800160405290816000820154815260200160018201805461119f90612612565b80601f01602080910402602001604051908101604052809291908181526020018280546111cb90612612565b80156112185780601f106111ed57610100808354040283529160200191611218565b820191906000526020600020905b8154815290600101906020018083116111fb57829003601f168201915b5050509183525050600282015460208201526003909101546001600160a01b0316604090910152905291505b50919050565b611252612091565b6001806002548154811061126857611268612589565b600091825260209091206009909102015460ff16600581111561128d5761128d612265565b146112ea5760405162461bcd60e51b815260206004820152602760248201527f737461747573206e6f742050726f706f73616c73526567697374726174696f6e60448201526614dd185c9d195960ca1b60648201526084016104b2565b600060016002548154811061130157611301612589565b90600052602060002090600902016001018054905090506000604051806080016040528083600161133291906125ff565b81526020016040518060400160405280600a815260200169566f746520426c616e6360b01b815250815260200160008152602001336001600160a01b0316815250905060016002548154811061138a5761138a612589565b6000918252602080832060016009909302018201805480840182559084529281902084516004909402019283558301518392918201906113ca90826126c0565b506040820151816002015560608201518160030160006101000a8154816001600160a01b0302191690836001600160a01b0316021790555050506000805160206128ea83398151915260016002548154811061142857611428612589565b600091825260209091206009909102015460405161144c9160ff16906002906127ab565b60405180910390a1600260016002548154811061146b5761146b612589565b60009182526020909120600990910201805460ff1916600183600581111561149557611495612265565b02179055505050565b6114a6612091565b6114b060006120c3565b565b6114ba612091565b60006001600254815481106114d1576114d1612589565b600091825260208083206001600160a01b0386168452600992909202909101600701905260409020805460ff19169115159190911790556002546001805490918291811061152157611521612589565b600091825260208083206001600160a01b03861684526009929092029091016008019052604090819020805460ff191692151592909217909155517e8471fa6bfdb5180799dd866e4f409add503a3a060686d106f4015aac5483d0906106e690839061248f565b611590612091565b6001600254815481106115a5576115a5612589565b600091825260208083206001600160a01b03851684526007600990930201919091019052604090205460ff166115da57600080fd5b6040518060600160405280600015158152602001600015158152602001600081525060016002548154811061161157611611612589565b600091825260208083206001600160a01b03861684526009929092029091016007018152604091829020835181549285015161ffff1990931690151561ff001916176101009215159290920291909117815591810151600190920191909155517fbcbaafd5b6b0bdadb54e1319af760bd09fc531fcf01b485e0a623e0eb0dfa8f7906106e690839061248f565b6000546001600160a01b031690565b6116b561221b565b6001600254815481106116ca576116ca612589565b90600052602060002090600902016002016040518060800160405290816000820154815260200160018201805461170090612612565b80601f016020809104026020016040519081016040528092919081815260200182805461172c90612612565b80156117795780601f1061174e57610100808354040283529160200191611779565b820191906000526020600020905b81548152906001019060200180831161175c57829003601f168201915b5050509183525050600282015460208201526003909101546001600160a01b0316604090910152919050565b60015460009082106117c95760405162461bcd60e51b81526004016104b2906127c6565b600182815481106117dc576117dc612589565b600091825260209091206009909102015460ff1692915050565b6117fe612091565b6001806002548154811061181457611814612589565b600091825260209091206009909102015460ff16600581111561183957611839612265565b14610e965760405162461bcd60e51b815260206004820152602e60248201527f54686520737461747573206973206e6f742050726f706f73616c73526567697360448201526d1d1c985d1a5bdb94dd185c9d195960921b60648201526084016104b2565b6118a5612091565b60046001600254815481106118bc576118bc612589565b600091825260209091206009909102015460ff1660058111156118e1576118e1612265565b146118fe5760405162461bcd60e51b81526004016104b29061277a565b600060016002548154811061191557611915612589565b906000526020600020906009020160010160008154811061193857611938612589565b9060005260206000209060040201600201549050600060016002548154811061196357611963612589565b906000526020600020906009020160010160008154811061198657611986612589565b906000526020600020906004020190506000600190505b6001600254815481106119b2576119b2612589565b906000526020600020906009020160010180549050811015611ac3576001600254815481106119e3576119e3612589565b90600052602060002090600902016001018181548110611a0557611a05612589565b906000526020600020906004020160020154831015611ab157600160025481548110611a3357611a33612589565b90600052602060002090600902016001018181548110611a5557611a55612589565b9060005260206000209060040201600201549250600160025481548110611a7e57611a7e612589565b90600052602060002090600902016001018181548110611aa057611aa0612589565b906000526020600020906004020191505b80611abb816127fb565b91505061199d565b5080600160025481548110611ada57611ada612589565b90600052602060002090600902016002016000820154816000015560018201816001019081611b099190612814565b50600282810154828201556003928301549290910180546001600160a01b0319166001600160a01b039093169290921790915554600180546000805160206128ea83398151915292908110611b6057611b60612589565b6000918252602090912060099091020154604051611b849160ff16906005906127ab565b60405180910390a1600560016002548154811061146b5761146b612589565b60018181548110611bb357600080fd5b600091825260209182902060099091020180546040805160808101909152600283018054825260038401805460ff80861698506101009095049094169592939192840191611c0090612612565b80601f0160208091040260200160405190810160405280929190818152602001828054611c2c90612612565b8015611c795780601f10611c4e57610100808354040283529160200191611c79565b820191906000526020600020905b815481529060010190602001808311611c5c57829003601f168201915b5050509183525050600282015460208201526003909101546001600160a01b031660409091015260069091015460ff1684565b6060600160025481548110611cc357611cc3612589565b9060005260206000209060090201600101805480602002602001604051908101604052809291908181526020016000905b82821015611de5578382906000526020600020906004020160405180608001604052908160008201548152602001600182018054611d3190612612565b80601f0160208091040260200160405190810160405280929190818152602001828054611d5d90612612565b8015611daa5780601f10611d7f57610100808354040283529160200191611daa565b820191906000526020600020905b815481529060010190602001808311611d8d57829003601f168201915b505050918352505060028201546020808301919091526003909201546001600160a01b03166040909101529082526001929092019101611cf4565b50505050905090565b611df6612091565b6002600160025481548110611e0d57611e0d612589565b600091825260209091206009909102015460ff166005811115611e3257611e32612265565b14611e945760405162461bcd60e51b815260206004820152602c60248201527f54686520737461747573206973206e6f742050726f706f73616c73526567697360448201526b1d1c985d1a5bdb915b99195960a21b60648201526084016104b2565b6000805160206128ea833981519152600160025481548110611eb857611eb8612589565b6000918252602090912060099091020154604051611edc9160ff16906003906127ab565b60405180910390a16003600160025481548110610e5d57610e5d612589565b611f03612091565b611f0c81612113565b50565b611f17612091565b6001600160a01b038116611f41576000604051631e4fbdf760e01b81526004016104b2919061248f565b611f0c816120c3565b611f52612091565b600160025481548110611f6757611f67612589565b600091825260208083206001600160a01b03851684526007600990930201919091019052604090205460ff1615611f9d57600080fd5b60405180606001604052806001151581526020016000151581526020016000815250600160025481548110611fd457611fd4612589565b600091825260208083206001600160a01b03861684526009929092029091016007018152604091829020835181549285015161ffff1990931690151561ff001916176101009215159290920291909117815591810151600190920191909155517fb6be2187d059cc2a55fe29e0e503b566e1e0f8c8780096e185429350acffd3dd906106e690839061248f565b600060016002548154811061207857612078612589565b600091825260209091206009909102015460ff16919050565b3361209a61169e565b6001600160a01b0316146114b0573360405163118cdaa760e01b81526004016104b2919061248f565b600080546001600160a01b038381166001600160a01b0319831681178455604051919092169283917f8be0079c531659141344cd1fd0a4f28419497f9722a3daafe3b4186f6b6457e09190a35050565b6001805460028190558082018083556000838152929190811061213857612138612589565b60009182526020808320600992909202909101805485151561010090810261ffff1992831617835560068301805460ff1916600190811790915560408051606081018252828152808701888152818301898152338a5260078801909852828920915182549151151590950261ff0019951515959095169516949094179290921783559351919093015590519092506000805160206128ea833981519152916121e19181906127ab565b60405180910390a15050565b60408051608081019091528060008152600060208201526060604082018190520161221661221b565b905290565b604051806080016040528060008152602001606081526020016000815260200160006001600160a01b031681525090565b60006020828403121561225e57600080fd5b5035919050565b634e487b7160e01b600052602160045260246000fd5b6006811061229957634e487b7160e01b600052602160045260246000fd5b9052565b805182526000602080830151608082860152805180608087015260005b818110156122d65782810184015187820160a0015283016122ba565b50600060a08288010152604085015160408701526060850151925061230660608701846001600160a01b03169052565b601f01601f19169490940160a001949350505050565b6000602080835260a08301612334828501865161227b565b818501511515604085015260408501516080606086015281815180845260c08701915060c08160051b8801019350848301925060005b818110156123985760bf1988860301835261238685855161229d565b9450928501929185019160010161236a565b505050506060850151848203601f1901608086015291506123b9818361229d565b95945050505050565b600080602083850312156123d557600080fd5b823567ffffffffffffffff808211156123ed57600080fd5b818501915085601f83011261240157600080fd5b81358181111561241057600080fd5b86602082850101111561242257600080fd5b60209290920196919550909350505050565b60608101612442828661227b565b8315156020830152612457604083018461227b565b949350505050565b60006020828403121561247157600080fd5b81356001600160a01b038116811461248857600080fd5b9392505050565b6001600160a01b0391909116815260200190565b602081526000612488602083018461229d565b602081016124c4828461227b565b92915050565b6124d4818661227b565b83151560208201526080604082015260006124f2608083018561229d565b9050821515606083015295945050505050565b6000602080830181845280855180835260408601915060408160051b870101925083870160005b8281101561255a57603f1988860301845261254885835161229d565b9450928501929085019060010161252c565b5092979650505050505050565b60006020828403121561257957600080fd5b8135801515811461248857600080fd5b634e487b7160e01b600052603260045260246000fd5b6020808252601e908201527f4e6f742077686974656c6973746564206f7220626c61636b6c69737465640000604082015260600190565b634e487b7160e01b600052601160045260246000fd5b818103818111156124c4576124c46125d6565b808201808211156124c4576124c46125d6565b600181811c9082168061262657607f821691505b60208210810361124457634e487b7160e01b600052602260045260246000fd5b634e487b7160e01b600052604160045260246000fd5b601f8211156126a657600081815260208120601f850160051c810160208610156126835750805b601f850160051c820191505b818110156126a25782815560010161268f565b5050505b505050565b600019600383901b1c191660019190911b1790565b815167ffffffffffffffff8111156126da576126da612646565b6126ee816126e88454612612565b8461265c565b602080601f83116001811461271d576000841561270b5750858301515b61271585826126ab565b8655506126a2565b600085815260208120601f198616915b8281101561274c5788860151825594840194600190910190840161272d565b508582101561276a5787850151600019600388901b60f8161c191681555b5050505050600190811b01905550565b602080825260179082015276151a19481cdd185d1d5cc81a5cc81b9bdd081d985b1a59604a1b604082015260600190565b604081016127b9828561227b565b612488602083018461227b565b6020808252601b908201527a53657373696f6e20696e646578206f7574206f6620626f756e647360281b604082015260600190565b60006001820161280d5761280d6125d6565b5060010190565b81810361281f575050565b6128298254612612565b67ffffffffffffffff81111561284157612841612646565b61284f816126e88454612612565b6000601f82116001811461287d576000831561286b5750848201545b61287584826126ab565b8555506128e2565b600085815260209020601f19841690600086815260209020845b838110156128b75782860154825560019586019590910190602001612897565b50858310156128d55781850154600019600388901b60f8161c191681555b50505060018360011b0184555b505050505056fe0a97a4ee45751e2abf3e4fc8946939630b11b371ea8ae39ccdc3056e98f5cc3fa26469706673582212206767284934bfffd8b5ef82e48719a8bb5919d1345f312f678485fe92d94b33d664736f6c63430008140033",
  "linkReferences": {},
  "deployedLinkReferences": {}
}